:100000000C9472000C9493000C9493000C94930045
:100010000C9493000C9493000C9493000C94930014
:100020000C9493000C9493000C9493000C94930004
:100030000C9493000C9493000C9493000C949300F4
:100040000C9493000C9493000C9493000C949300E4
:100050000C9493000C9493000C9493000C949300D4
:100060000C9493000C9493000C9493000C949300C4
:100070000C9493000C9493000C9493000C949300B4
:100080000C9493000C9493000C9493000C949300A4
:100090000C9493000C9493000C9493000C94930094
:1000A0000C9493000C9493000C9493000C94930084
:1000B0000C9493000C9493000C9493000C94930074
:1000C0000C9493000C9493000C9493000C94930064
:1000D0000C9493000C9493000C9493000C94930054
:1000E0000C94930011241FBECFEFD1E2DEBFCDBF31
:1000F00000E00CBF13E0A0E0B2E0E2EBFAE100E0C8
:100100000BBF02C007900D92AE33B107D9F721E2C1
:10011000AEE3B3E001C01D92AC3BB207E1F70E9431
:100120002E0B0C94570D0C940000CF93C82F8230E7
:1001300009F442C028F4882381F0813021F18DC078
:10014000843009F476C008F449C0853009F085C0D0
:100150000E940B09C093B02180C06091440370914C
:10016000450380914203909143030E9487010E94BE
:100170007B0981E08093B02180E092E00E942A0A0E
:10018000109246036AC060914403709145038091C8
:100190004203909143030E948701813041F482E041
:1001A0008093B02189E092E00E942A0A03C083E094
:1001B0008093B02181E04FC00E947B0988E192E0EA
:1001C0000E942A0A80914603813021F0833011F089
:1001D000843011F48093B02182E03DC060914403EB
:1001E0007091450380914203909143030E94BE08A1
:1001F000C82F8093B121811108C081E292E00E9452
:100200002A0A82E08093B02112C0823041F484E057
:100210008093B02187E292E00E942A0A08C08130D0
:1002200031F48FE292E00E942A0AC093B02183E069
:1002300012C06091440370914503809142039091F4
:1002400043030E94FF08892B11F482E001C085E07E
:100250008093B02184E080934603CF9108959091DC
:10026000010190910101982B90930101803161F07F
:10027000813199F08830D1F470E07093A9006093D7
:10028000A80084E392E007C070E07093AB00609335
:10029000AA008AE392E00C942A0A70E07093A90005
:1002A0006093A8007093AB006093AA000895E0EA01
:1002B000F0E08081836A8083E1EAF0E080818360FE
:1002C0008083089590917C00907F8F70892B80931C
:1002D0007C0080917A00806480937A0080917A001B
:1002E00086FDFCCF80917800909179000895ECE72D
:1002F000F0E0808180648083EAE7F0E080818468B8
:100300008083089596958795969587950895AF92E1
:10031000BF92CF92DF92EF92FF920F931F93CF93F2
:10032000DF936C012FEFC21AD20A5B012FEFA21AE2
:10033000B20A25E2C216D10408F0A9C225E2A2162B
:10034000B10408F0A4C2F090AF2121E0F212A6C2DD
:100350008B01EC0180E492E00E942A0A8091B22194
:100360008111A4C08DE492E00E942A0A83E00E94D9
:100370006809E82E83E00E947409AE0141505109DA
:1003800096E0909FF001919FF00D112498ED949FBD
:100390009001959F300D1124E20FF31FE55BFC4F98
:1003A000948191110DC0E8120BC0F48282E0809319
:1003B000490383E080934A0386E592E00E942A0A7B
:1003C00081E00E946809E82E81E00E94740996E0AD
:1003D0009A9DF0019B9DF00D112498ED9C9F90013A
:1003E0009D9F300D1124E20FF31FE55BFC4F9481BC
:1003F00091110DC0E8120BC081E084838093490302
:1004000082E080934A038DE592E00E942A0A82E00E
:100410000E946809E82E82E00E9474099801215028
:10042000310996E0929FF001939FF00D112498ED11
:100430009C9F90019D9F300D1124E20FF31FE55BFF
:10044000FC4F948191110DC0E8120BC081E08483B0
:1004500093E09093490380934A0381E692E00E94DF
:100460002A0A80E00E946809C82F80E00E9474096F
:1004700096E0909FF001919FF00D112498ED9C9DC6
:1004800090019D9D300D1124E20FF31FE55BFC4FA1
:1004900094819111F9C1C813F7C181E0848310924E
:1004A000490310924A0385E692E0A5C08091B321EA
:1004B0008111A4C08CE692E00E942A0A83E00E9487
:1004C0006809E82E83E00E947409980121503109DF
:1004D00096E0929FF001939FF00D112498ED9C9F60
:1004E00090019D9F300D1124E20FF31FE55BFC4F3F
:1004F000948191110CC0E8120AC0F48283E08093C9
:10050000490380934A0386E592E00E942A0A81E02B
:100510000E946809E82E81E00E947409AE014150F2
:10052000510996E0909FF001919FF00D112498EDF4
:10053000949F9001959F300D1124E20FF31FE55B0E
:10054000FC4F948191110DC0E8120BC081E08483AF
:1005500082E08093490380934A038DE592E00E94F4
:100560002A0A82E00E946809E82E82E00E9474094B
:1005700096E0909FF001919FF00D112498ED9C9DC5
:1005800090019D9D300D1124E20FF31FE55BFC4FA0
:10059000948191110CC0E8120AC081E0848310920A
:1005A000490380934A0381E692E00E942A0A80E090
:1005B0000E946809182F80E00E94740996E09A9DB5
:1005C000F0019B9DF00D112498ED9C9F90019D9F43
:1005D000300D1124E20FF31FE55BFC4F9481911164
:1005E00053C1181351C181E0848380934903109251
:1005F0004A0385E792E00E942A0A46C18091B4210D
:1006000081119CC08CE792E00E942A0A83E00E943C
:100610006809E82E83E00E94740996E0909FF0013B
:10062000919FF00D112498ED9C9D90019D9D300DA2
:100630001124E20FF31FE55BFC4F948191110CC074
:10064000E8120AC0F4821092490383E080934A03BF
:1006500086E592E00E942A0A81E00E946809E82E5D
:1006600081E00E94740998012150310996E0929F1F
:10067000F001939FF00D112498ED9C9F90019D9F98
:10068000300D1124E20FF31FE55BFC4F94819111B3
:100690000EC0E8120CC081E0848383E0809349039C
:1006A00082E080934A038DE592E00E942A0A82E06C
:1006B0000E946809E82E82E00E94740996E09A9DE3
:1006C000F0019B9DF00D112498ED9C9F90019D9F42
:1006D000300D1124E20FF31FE55BFC4F9481911163
:1006E0000CC0E8120AC081E08483809349038093A0
:1006F0004A0381E692E00E942A0A80E00E9468098B
:10070000E82E80E00E947409219796E0909FF00106
:10071000919FF00D112498ED9C9F90019D9F300DAD
:100720001124E20FF31FE55BFC4F94819111ACC0E3
:10073000E812AAC081E0848382E057CF8091B5217E
:1007400081119DC085E892E00E942A0A83E00E9400
:100750006809E82E83E00E94740996E09A9DF001F2
:100760009B9DF00D112498ED9C9F90019D9F300D55
:100770001124E20FF31FE55BFC4F948191110CC033
:10078000E8120AC0F482F092490383E080934A039E
:1007900086E592E00E942A0A81E00E946809B82E4C
:1007A00081E00E94740996E0909FF001919FF00D06
:1007B000112498ED9C9D90019D9D300D1124E20F18
:1007C000F31FE55BFC4F948191110DC0B8120BC073
:1007D00081E084831092490382E080934A038DE58F
:1007E00092E00E942A0A82E00E946809D82E82E0E4
:1007F0000E947409AE014150510996E0909FF001AA
:10080000919FF00D112498ED949F9001959F300DCC
:100810001124E20FF31FE55BFC4F948191110DC091
:10082000D8120BC081E0848392E0909349038093B7
:100830004A0381E692E00E942A0A80E00E94680949
:10084000D82E80E00E9474090150110996E0909F13
:10085000F001919FF00D112498ED9C9F90019D9FB8
:10086000300D1124E20FF31FE55BFC4F94819111D1
:100870000BC0D81209C081E0848383E0B6CE84E047
:100880008093490383E006C01092AF2109C084E041
:100890008093490380934A03F12C02C0FF24F39410
:1008A0008F2DDF91CF911F910F91FF90EF90DF90EF
:1008B000CF90BF90AF90089526E0269FF001279F2C
:1008C000F00D112428EDAC01249FC001259F900D4F
:1008D0001124E80FF91FE55BFC4F81E08483089544
:1008E0008F929F92AF92BF92CF92DF92EF92FF9240
:1008F0000F931F93CF93DF93EB018901841B950B1B
:10090000BC0180E090E00E94010C6B017C01BE0103
:10091000601B710B80E090E00E94010C4B015C01B8
:10092000A7019601C701B6010E948F0C6B017C01E3
:10093000A5019401C501B4010E948F0C9B01AC017B
:10094000C701B6010E94660B0E94020D0E94D20BE5
:10095000CB01DF91CF911F910F91FF90EF90DF902E
:10096000CF90BF90AF909F908F9008954F925F92DD
:100970006F927F928F929F92AF92BF92CF92DF92AF
:10098000EF92FF920F931F93CF93DF932C013B01C4
:100990008BE4C82E83E0D82E94E2A92EB12C00E07F
:1009A00010E07601C0E0D0E0F7018481813019F5D4
:1009B0008581811120C09E01A801B301C2010E945E
:1009C00070044C010E94820A8AE792E00E942A0A7F
:1009D000C5010E94820A8EE892E00E942A0A8A14C7
:1009E0009B0448F410933F0300933E03D0934103CC
:1009F000C093400354012196F6E0EF0EF11CC4327F
:100A0000D10591F60F5F1F4F88EDC80ED11C04323F
:100A1000110539F68EE393E00E94820A8EE393E09B
:100A2000DF91CF911F910F91FF90EF90DF90CF90CA
:100A3000BF90AF909F908F907F906F905F904F90FE
:100A400008958BE493E0FC0120E030E010821182F5
:100A500012821382148215822F5F3F4F3696243202
:100A60003105A1F788529F4F21E28B3A920759F73F
:100A700008958F929F92AF92BF92CF92DF92EF92A2
:100A8000FF920F931F93CF93DF93EC018B017A01B9
:100A9000690182E992E00E942A0A9801AE01B6013A
:100AA000C7010E947004892B09F05AC39090AF21AE
:100AB00081E098124CC38EE992E00E942A0A80914C
:100AC000B2218111D2C08DE492E00E942A0A83E013
:100AD0000E946809B82E83E00E947409AE0141505B
:100AE000510996E0909FF001919FF00D112498ED2F
:100AF000949F9001959F300D1124E20FF31FE55B49
:100B0000FC4F9481911118C0B81216C09801B6011B
:100B1000C7010E9470045C0188EEA81683E0B80645
:100B200058F482E08093490383E080934A0386E58A
:100B300092E00E942A0A04C037EEA32E33E0B32EBF
:100B400081E00E946809982E81E00E947409980152
:100B50002F5F3F4F96E0929FF001939FF00D11247D
:100B600098ED9C9FA0019D9F500D1124E40FF51F4F
:100B7000E55BFC4F9481911116C0981214C0AE0130
:100B8000B601C7010E9470044C018A159B0558F4F8
:100B900081E08093490382E080934A038DE592E0EF
:100BA0000E942A0A540182E00E946809982E82E07D
:100BB0000E94740998012150310996E0929FF0013A
:100BC000939FF00D112498ED9C9FA0019D9F500DC7
:100BD0001124E40FF51FE55BFC4F9481911116C0C1
:100BE000981214C0AE01B601C7010E9470044C01F6
:100BF0008A159B0558F483E08093490381E0809334
:100C00004A0381E692E00E942A0A540180E00E9491
:100C10006809982E80E00E947409AE014F5F5F4F13
:100C200096E0909FF001919FF00D112498ED949F14
:100C30009001959F300D1124E20FF31FE55BFC4FEF
:100C40009481911184C2981282C29801B601C701A1
:100C50000E9470048A159B0508F079C2109249031E
:100C600010924A0385E692E070C28091B32181110F
:100C7000CAC08CE692E00E942A0A83E00E946809BA
:100C8000B82E83E00E94740998012150310996E042
:100C9000929FF001939FF00D112498ED9C9FA0016D
:100CA0009D9F500D1124E40FF51FE55BFC4F9481CF
:100CB000911117C0B81215C0AE01B601C7010E944C
:100CC00070045C0187EEA81683E0B80650F483E058
:100CD0008093490380934A0386E592E00E942A0AA2
:100CE00004C027EEA22E23E0B22E81E00E94680904
:100CF000982E81E00E947409AE014150510996E09E
:100D0000909FF001919FF00D112498ED949F900118
:100D1000959F300D1124E20FF31FE55BFC4F94818A
:100D2000911115C0981213C09801B601C7010E9415
:100D300070044C018A159B0550F482E080934903AE
:100D400080934A038DE592E00E942A0A540182E0D2
:100D50000E946809982E82E00E947409AE014F5FDC
:100D60005F4F96E0909FF001919FF00D112498ED58
:100D7000949F9001959F300D1124E20FF31FE55BC6
:100D8000FC4F9481911115C0981213C09801B601BF
:100D9000C7010E9470044C018A159B0550F4109203
:100DA000490381E080934A0381E692E00E942A0A87
:100DB000540180E00E946809982E80E00E94740926
:100DC00098012F5F3F4F96E0929FF001939FF00DA7
:100DD000112498ED9C9FA0019D9F500D1124E40FBC
:100DE000F51FE55BFC4F94819111B1C19812AFC121
:100DF000AE01B601C7010E9470048A159B0508F078
:100E0000A6C181E09CC18091B4218111CBC08CE747
:100E100092E00E942A0A83E00E946809B82E83E0CB
:100E20000E947409AE014F5F5F4F96E0909FF00102
:100E3000919FF00D112498ED949F9001959F300D96
:100E40001124E20FF31FE55BFC4F9481911117C051
:100E5000B81215C09801B601C7010E9470045C0168
:100E600087EEA81683E0B80650F41092490383E099
:100E700080934A0386E592E00E942A0A04C097EE16
:100E8000A92E93E0B92E81E00E946809982E81E096
:100E90000E94740998012150310996E0929FF00157
:100EA000939FF00D112498ED9C9FA0019D9F500DE4
:100EB0001124E40FF51FE55BFC4F9481911116C0DE
:100EC000981214C0AE01B601C7010E9470044C0113
:100ED0008A159B0558F483E08093490382E0809350
:100EE0004A038DE592E00E942A0A540182E00E94A2
:100EF0006809982E82E00E94740998012F5F3F4F85
:100F000096E0929FF001939FF00D112498ED9C9F25
:100F1000A0019D9F500D1124E40FF51FE55BFC4FD0
:100F20009481911115C0981213C0AE01B601C7018A
:100F30000E9470044C018A159B0550F481E0809357
:100F4000490380934A0381E692E00E942A0A5401F1
:100F500080E00E946809982E80E00E947409AE012A
:100F60004150510996E0909FF001919FF00D11249E
:100F700098ED949F9001959F300D1124E20FF31F7F
:100F8000E55BFC4F94819111E2C09812E0C098019A
:100F9000B601C7010E9470048A159B0508F0D7C0EE
:100FA00082E0CDC08091B5218111D3C085E892E067
:100FB0000E942A0A83E00E946809B82E83E00E94FA
:100FC000740998012F5F3F4F96E0929FF001939F25
:100FD000F00D112498ED9C9FA0019D9F500D1124B0
:100FE000E40FF51FE55BFC4F9481911117C0B81217
:100FF00015C0AE01B601C7010E9470045C0187EE06
:10100000A81683E0B80650F49092490383E08093D9
:101010004A0386E592E00E942A0A04C087EEA82EC1
:1010200083E0B82E81E00E946809982E81E00E943A
:101030007409AE014F5F5F4F96E0909FF001919F62
:10104000F00D112498ED949F9001959F300D11247F
:10105000E20FF31FE55BFC4F9481911115C09812CC
:1010600013C09801B601C7010E9470044C018A1593
:101070009B0550F41092490382E080934A038DE56A
:1010800092E00E942A0A540182E00E946809982E88
:1010900082E00E947409AE014150510996E0909F90
:1010A000F001919FF00D112498ED949F9001959F70
:1010B000300D1124E20FF31FE55BFC4F9481911179
:1010C00016C0981214C09801B601C7010E9470049E
:1010D0004C018A159B0558F482E08093490381E016
:1010E00080934A0381E692E00E942A0A540180E03C
:1010F0000E946809982E80E00E947409980121508E
:10110000310996E0929FF001939FF00D112498ED24
:101110009C9FA0019D9F500D1124E40FF51FE55BDE
:10112000FC4F9481911113C0981211C0AE01B60109
:10113000C7010E9470048A159B0548F483E08093E0
:10114000490310924A0385E792E00E942A0A80E050
:1011500008C084E08093490383E080934A03F7CF7B
:1011600081E0DF91CF911F910F91FF90EF90DF9081
:10117000CF90BF90AF909F908F900895EF92FF9285
:101180000F931F93CF93DF938C017B018EEA92E044
:101190000E942A0AB701C8010E94B604EC018DEB37
:1011A00092E00E942A0A888199810E94820A8AE735
:1011B00092E00E942A0A8A819B810E94820A88E327
:1011C00092E00E942A0A488159812A813B81411577
:1011D000510519F42115310549F0B701C8010E94E4
:1011E000390591E0811103C090E001C092E0892FA0
:1011F000DF91CF911F910F91FF90EF90089522E121
:1012000030E042E150E00E94390591E0811101C0D7
:1012100090E0892F08952FEF83ED90E321508040D7
:101220009040E1F700C0000089EC92E00E942A0A99
:1012300081E08093AF21089588ED92E00E942A0A10
:1012400080B180B9029A6AEA88E00E942F0160E0CA
:1012500080E10E942F010C940B0986EE92E00E941F
:101260002A0A80B180B9009A6AEA80E10E942F01BF
:1012700060E088E00E942F010C940B0984EF92E05B
:101280000E942A0A80B180B980B1856080B962E885
:1012900088E00E942F0162E880E10E942F010C94F7
:1012A0000B098FEF92E00E942A0A80B180B980B1C9
:1012B0008A6080B962E888E00E942F0162E880E1DC
:1012C0000E942F010C940B0980B180B180B9089560
:1012D00046B121E030E0B90102C0660F771F8A9560
:1012E000E2F7CB018423089591E001C0990F8A951C
:1012F000EAF7892F08958091AF2181117BC08BE09F
:1013000093E00E942A0A8091490381110FC0109234
:10131000B22181E08093B3218093B4218093B521E1
:101320008091420390914303019620C0813071F473
:101330008093B2211092B3218093B4218093B52180
:101340008091440390914503019625C0823099F421
:1013500081E08093B2218093B3211092B4218093D5
:10136000B5218091420390914303019790934303E9
:10137000809342031EC0833099F481E08093B221B0
:101380008093B3218093B4211092B52180914403BE
:10139000909145030197909345038093440309C0BE
:1013A00081E08093B2218093B3218093B421809314
:1013B000B52180914A03811102C00E943E098091AB
:1013C0004A03823011F40E942D0980914A03813032
:1013D00011F40E941C0980914A03833011F40E9489
:1013E000510980914A03843011F40E94640984E019
:1013F00080934A0381E0089581B111B881B18F6073
:1014000081B9089587B187B187B988B18F6088B9EC
:1014100008953E9A08951092C50087E68093C4000F
:10142000E0ECF0E080818D7F808388E18093C100D3
:1014300086E08093C20008959091C00095FFFCCF94
:101440008093C60008958091C00087FFFCCF8091F3
:10145000C60008950F931F93CF938C01C0E0F8014D
:10146000EC0FF11D8081882321F00E941C0ACF5FC0
:10147000F6CFCF911F910F910895CF92DF92EF9207
:10148000FF920F931F93CF93DF936C01F12C062FE4
:1014900010E001501109CF2DD0E0C017D10744F45E
:1014A0000E94230AE82E0E941C0A8DE0E8120CC05C
:1014B000CC0DDD1D1882DF91CF911F910F91FF9010
:1014C000EF90DF90CF900895CC0DDD1DE882F3946E
:1014D000E2CFCF93C82F64E60E94450B805D0E9447
:1014E0001C0A2AE08C2F622F0E94450BC92F0E94F4
:1014F000450B80E3890F0E941C0A80E38C0FCF917B
:101500000C941C0A0F931F93CF93DF938C0160E11F
:1015100077E20E94510B80E3860F0E941C0AC801EB
:1015200068EE73E00E94510BCB01CAE0D0E0BE012F
:101530000E94510B805D0E941C0AC80164E670E0A5
:101540000E94510BCB01BE010E94510B805D0E9495
:101550001C0AC801BE010E94510B182FCB01BE010D
:101560000E94510B805D0E941C0A80E3810FDF9175
:10157000CF911F910F910C941C0A1F93CF93DF936F
:101580001F92CDB7DEB7898317E0898190E0012EE5
:1015900002C0959587950A94E2F780FF02C081E327
:1015A00001C080E30E941C0A115078F70F90DF9170
:1015B000CF911F9108958A3010F4805D0895895C61
:1015C0000895CF93C82F82958F700E94DB0A0E94E6
:1015D0001C0A8C2F8F700E94DB0ACF910C941C0A7E
:1015E0000F931F93CF93DF93D0E3C0E310E30E94E8
:1015F000230A082F0E941C0A0D3021F01C2FCD2F2A
:10160000D02FF5CF1053D05384E6189FD00D11245E
:10161000CC0FC0568C2F880F880F8C0F8D0FDF9149
:10162000CF911F910F9108951092B021109246030F
:10163000E2E4F3E082E190E091838083938382830C
:10164000E9E4F3E010821182E2EBF1E2108281E042
:101650008183828383838093AF2108950E94140B3A
:101660000E9421050E94FC090E94020A0E94570163
:101670000E9477010E940B0A89E193E00E942A0AE6
:101680008091B0210E949500FBCF991B79E004C0A6
:10169000991F961708F0961B881F7A95C9F78095B1
:1016A0000895AA1BBB1B51E107C0AA1FBB1FA617A9
:1016B000B70710F0A61BB70B881F991F5A95A9F7FB
:1016C00080959095BC01CD0108955058BB27AA275D
:1016D0000E947D0B0C94550C0E94470C38F00E9420
:1016E0004E0C20F039F49F3F19F426F40C94440C6E
:1016F0000EF4E095E7FB0C943E0CE92F0E94660C7B
:1017000058F3BA17620773078407950720F079F436
:10171000A6F50C94880C0EF4E0950B2EBA2FA02D94
:101720000B01B90190010C01CA01A0011124FF278E
:10173000591B99F0593F50F4503E68F11A16F04089
:10174000A22F232F342F4427585FF3CF4695379588
:101750002795A795F0405395C9F77EF41F16BA0B4D
:10176000620B730B840BBAF09150A1F0FF0FBB1FFB
:10177000661F771F881FC2F70EC0BA0F621F731F44
:10178000841F48F4879577956795B795F7959E3FA1
:1017900008F0B0CF9395880F08F09927EE0F979532
:1017A000879508950E946E0C88F09F5798F0B92F86
:1017B0009927B751B0F0E1F0660F771F881F991F86
:1017C0001AF0BA95C9F714C0B13091F00E94880C94
:1017D000B1E008950C94880C672F782F8827B85FA4
:1017E00039F0B93FCCF3869577956795B395D9F7DE
:1017F0003EF490958095709561957F4F8F4F9F4FE8
:101800000895E89409C097FB3EF4909580957095F3
:1018100061957F4F8F4F9F4F9923A9F0F92F96E93C
:10182000BB279395F695879577956795B795F111B1
:10183000F8CFFAF4BB0F11F460FF1BC06F5F7F4F4E
:101840008F4F9F4F16C0882311F096E911C0772360
:1018500021F09EE8872F762F05C0662371F096E869
:10186000862F70E060E02AF09A95660F771F881F38
:10187000DAF7880F9695879597F9089597F99F67F6
:1018800080E870E060E008959FEF80EC0895002408
:101890000A941616170618060906089500240A94D5
:1018A00012161306140605060895092E0394000C5B
:1018B00011F4882352F0BB0F40F4BF2B11F460FFEA
:1018C00004C06F5F7F4F8F4F9F4F089557FD905813
:1018D000440F551F59F05F3F71F04795880F97FBF4
:1018E000991F61F09F3F79F08795089512161306AE
:1018F0001406551FF2CF4695F1DF08C016161706DD
:101900001806991FF1CF8695710561050894089511
:10191000E894BB2766277727CB0197F908950E94A3
:10192000A20C0C94550C0E94470C38F00E944E0CEF
:1019300020F0952311F00C943E0C0C94440C1124CF
:101940000C94890C0E94660C70F3959FC1F3950F5F
:1019500050E0551F629FF001729FBB27F00DB11D33
:10196000639FAA27F00DB11DAA1F649F6627B00DC3
:10197000A11D661F829F2227B00DA11D621F739FAC
:10198000B00DA11D621F839FA00D611D221F749FBA
:101990003327A00D611D231F849F600D211D822F01
:1019A000762F6A2F11249F5750409AF0F1F0882328
:1019B0004AF0EE0FFF1FBB1F661F771F881F915055
:1019C0005040A9F79E3F510580F00C943E0C0C94BA
:1019D000890C5F3FE4F3983ED4F38695779567953D
:1019E000B795F795E7959F5FC1F7FE2B880F911D7F
:1019F0009695879597F9089519F416F40C94440C6C
:101A00000C94420D0E946E0CB8F39923C9F3B6F3FF
:101A10009F57550B87FF0E94500D0024A0E640EA17
:101A2000900180585695979528F4805C660F771F33
:101A3000881F20F026173707480730F4621B730B06
:101A4000840B202931294A2BA69517940794202529
:101A500031254A2758F7660F771F881F20F0261771
:101A60003707480730F4620B730B840B200D311DD0
:101A7000411DA09581F7B901842F9158880F969543
:101A8000879508959F3F31F0915020F48795779581
:101A90006795B795880F911D9695879597F9089545
:101AA00091505040660F771F881FD2F70895F89421
:021AB000FFCF66
:101AB200696E6974200D200A004C6F6F6B61726F42
:101AC200756E64200D200A0053746570200D200A83
:101AD2000046414C5345004E454954484552005436
:101AE200525545003441200D0A003442200D0A00AF
:101AF200436865636B4F4253200D200A00486561BD
:101B02006420707820002042200D200A00204C2002
:101B120000205220002046200D200A004865616402
:101B220020707920002046200D0A2000486561645B
:101B3200206D78200048656164206D792000207C4A
:101B42002000546F207468617420426F7800546FD3
:101B5200205468617420426F78200D200A002046CC
:101B6200696E6454686544657374200A0020706F5E
:101B72007344657374203A200053746F7073204D60
:101B82006F746F72200D0A005475726E205269676D
:101B92006874200D0A005475726E204C65667420BC
:101BA2000D200A00466F7277617264200D0A0042AE
:101BB20061636B77617264200D0A00576865726514
:101BC200596F75476F203A20004927616D2054688C
:101BD2006520427261766520416476656E74757225
:0E1BE2006520562E30312E3030200D200A00A6
:00000001FF
