:100000000C9472000C9493000C9493000C94930045
:100010000C9493000C9493000C9493000C94930014
:100020000C9493000C9493000C9493000C94930004
:100030000C9493000C9493000C9493000C949300F4
:100040000C9493000C9493000C9493000C949300E4
:100050000C9493000C9493000C9493000C949300D4
:100060000C9493000C9493000C9493000C949300C4
:100070000C9493000C9493000C9493000C949300B4
:100080000C9493000C9493000C9493000C949300A4
:100090000C9493000C9493000C9493000C94930094
:1000A0000C9493000C9493000C9493000C94930084
:1000B0000C9493000C9493000C9493000C94930074
:1000C0000C9493000C9493000C9493000C94930064
:1000D0000C9493000C9493000C9493000C94930054
:1000E0000C94930011241FBECFEFD1E2DEBFCDBF31
:1000F00000E00CBF13E0A0E0B2E0E6E2FAE100E0CD
:100100000BBF02C007900D92A030B107D9F721E2D2
:10011000A0E0B3E001C01D92AD37B207E1F70E9445
:10012000E80A0C94110D0C940000CF93C82F823074
:1001300009F442C028F4882381F0813021F175C090
:10014000843009F45EC008F449C0853009F06DC000
:100150000E94C508C093722168C060910603709127
:10016000070380910403909105030E946F010E9490
:10017000350981E08093722180E092E00E94E409D9
:100180001092080352C0609106037091070380919A
:100190000403909105030E946F01813041F482E0D5
:1001A0008093722189E092E00E94E40903C083E019
:1001B0008093722181E037C00E94350988E192E086
:1001C0000E94E40980910803813021F0833011F00E
:1001D000843011F48093722182E025C0609106037F
:1001E0007091070380910403909105030E949E087B
:1001F000811102C082E001C081E08093722183E01E
:1002000012C06091060370910703809104039091DE
:1002100005030E94B908892B11F482E001C085E032
:100220008093722184E080930803CF910895909188
:10023000010190910101982B90930101803161F0AF
:10024000813199F08830D1F470E07093A900609307
:10025000A80081E292E007C070E07093AB00609369
:10026000AA0087E292E00C94E40970E07093A90080
:100270006093A8007093AB006093AA000895E0EA31
:10028000F0E08081836A8083E1EAF0E0808183602E
:100290008083089590917C00907F8F70892B80934C
:1002A0007C0080917A00806480937A0080917A004B
:1002B00086FDFCCF80917800909179000895ECE75D
:1002C000F0E0808180648083EAE7F0E080818468E8
:1002D0008083089596958795969587950895AF9212
:1002E000BF92CF92DF92EF92FF920F931F93CF9323
:1002F000DF936C012FEFC21AD20A5B012FEFA21A13
:10030000B20A25E2C216D10408F0A9C225E2A2165B
:10031000B10408F0A4C2F090712121E0F212A6C24B
:100320008B01EC018DE292E00E94E409809173213F
:100330008111A4C08AE392E00E94E40983E00E9454
:100340002209E82E83E00E942E09AE014150510996
:1003500096E0909FF001919FF00D112498ED949FED
:100360009001959F300D1124E20FF31FE35FFC4FC6
:10037000948191110DC0E8120BC0F48282E0809349
:100380000B0383E080930C0383E492E00E94E40972
:1003900081E00E942209E82E81E00E942E0996E069
:1003A0009A9DF0019B9DF00D112498ED9C9F90016A
:1003B0009D9F300D1124E20FF31FE35FFC4F9481EA
:1003C00091110DC0E8120BC081E0848380930B0370
:1003D00082E080930C038AE492E00E94E40982E0C8
:1003E0000E942209E82E82E00E942E0998012150E5
:1003F000310996E0929FF001939FF00D112498ED42
:100400009C9F90019D9F300D1124E20FF31FE35F2D
:10041000FC4F948191110DC0E8120BC081E08483E0
:1004200093E090930B0380930C038EE492E00E9480
:10043000E40980E00E942209C82F80E00E942E0972
:1004400096E0909FF001919FF00D112498ED9C9DF6
:1004500090019D9D300D1124E20FF31FE35FFC4FCF
:1004600094819111F9C1C813F7C181E0848310927E
:100470000B0310920C0382E592E0A5C080917421D9
:100480008111A4C089E592E00E94E40983E00E9402
:100490002209E82E83E00E942E099801215031099B
:1004A00096E0929FF001939FF00D112498ED9C9F90
:1004B00090019D9F300D1124E20FF31FE35FFC4F6D
:1004C000948191110CC0E8120AC0F48283E08093F9
:1004D0000B0380930C0383E492E00E94E40981E023
:1004E0000E942209E82E81E00E942E09AE014150AF
:1004F000510996E0909FF001919FF00D112498ED25
:10050000949F9001959F300D1124E20FF31FE35F3C
:10051000FC4F948191110DC0E8120BC081E08483DF
:1005200082E080930B0380930C038AE492E00E94A4
:10053000E40982E00E942209E82E82E00E942E094E
:1005400096E0909FF001919FF00D112498ED9C9DF5
:1005500090019D9D300D1124E20FF31FE35FFC4FCE
:10056000948191110CC0E8120AC081E0848310923A
:100570000B0380930C038EE492E00E94E40980E078
:100580000E942209182F80E00E942E0996E09A9D71
:10059000F0019B9DF00D112498ED9C9F90019D9F73
:1005A000300D1124E20FF31FE35FFC4F9481911192
:1005B00053C1181351C181E0848380930B031092BF
:1005C0000C0382E692E00E94E40946C18091752105
:1005D00081119CC089E692E00E94E40983E00E94B8
:1005E0002209E82E83E00E942E0996E0909FF001F8
:1005F000919FF00D112498ED9C9D90019D9D300DD3
:100600001124E20FF31FE35FFC4F948191110CC0A2
:10061000E8120AC0F48210920B0383E080930C036B
:1006200083E492E00E94E40981E00E942209E82E1E
:1006300081E00E942E0998012150310996E0929F95
:10064000F001939FF00D112498ED9C9F90019D9FC8
:10065000300D1124E20FF31FE35FFC4F94819111E1
:100660000EC0E8120CC081E0848383E080930B030A
:1006700082E080930C038AE492E00E94E40982E025
:100680000E942209E82E82E00E942E0996E09A9D9F
:10069000F0019B9DF00D112498ED9C9F90019D9F72
:1006A000300D1124E20FF31FE35FFC4F9481911191
:1006B0000CC0E8120AC081E0848380930B0380930E
:1006C0000C038EE492E00E94E40980E00E9422097B
:1006D000E82E80E00E942E09219796E0909FF0017D
:1006E000919FF00D112498ED9C9F90019D9F300DDE
:1006F0001124E20FF31FE35FFC4F94819111ACC012
:10070000E812AAC081E0848382E057CF80917621ED
:1007100081119DC082E792E00E94E40983E00E947B
:100720002209E82E83E00E942E0996E09A9DF001AE
:100730009B9DF00D112498ED9C9F90019D9F300D85
:100740001124E20FF31FE35FFC4F948191110CC061
:10075000E8120AC0F482F0920B0383E080930C034A
:1007600083E492E00E94E40981E00E942209B82E0D
:1007700081E00E942E0996E0909FF001919FF00D7C
:10078000112498ED9C9D90019D9D300D1124E20F48
:10079000F31FE35FFC4F948191110DC0B8120BC0A1
:1007A00081E0848310920B0382E080930C038AE43F
:1007B00092E00E94E40982E00E942209D82E82E0A1
:1007C0000E942E09AE014150510996E0909FF00120
:1007D000919FF00D112498ED949F9001959F300DFD
:1007E0001124E20FF31FE35FFC4F948191110DC0C0
:1007F000D8120BC081E0848392E090930B03809326
:100800000C038EE492E00E94E40980E00E94220939
:10081000D82E80E00E942E090150110996E0909F89
:10082000F001919FF00D112498ED9C9F90019D9FE8
:10083000300D1124E20FF31FE35FFC4F94819111FF
:100840000BC0D81209C081E0848383E0B6CE84E077
:1008500080930B0383E006C01092712109C084E0ED
:1008600080930B0380930C03F12C02C0FF24F394BC
:100870008F2DDF91CF911F910F91FF90EF90DF901F
:10088000CF90BF90AF90089526E0269FF001279F5C
:10089000F00D112428EDAC01249FC001259F900D7F
:1008A0001124E80FF91FE35FFC4F81E08483089572
:1008B0008F929F92AF92BF92CF92DF92EF92FF9270
:1008C0000F931F93CF93DF93EB018901841B950B4B
:1008D000BC0180E090E00E94BB0B6B017C01BE017B
:1008E000601B710B80E090E00E94BB0B4B015C0130
:1008F000A7019601C701B6010E94490C6B017C015A
:10090000A5019401C501B4010E94490C9B01AC01F1
:10091000C701B6010E94200B0E94BC0C0E948C0BE8
:10092000CB01DF91CF911F910F91FF90EF90DF905E
:10093000CF90BF90AF909F908F9008952F923F924D
:100940004F925F926F927F928F929F92AF92BF92DF
:10095000CF92DF92EF92FF920F931F93CF93DF938B
:100960005C014B0120900003309001034090020392
:10097000509003038DE0C82E83E0D82E94E2692EB8
:10098000712C00E010E07601C0E0D0E0F701848136
:10099000813079F4858181110CC09E01A801B401D8
:1009A000C5010E9458048615970518F42E011801F8
:1009B0003C012196F6E0EF0EF11CC432D10531F76F
:1009C0000F5F1F4F88EDC80ED11C04321105D9F6F8
:1009D00020920003309201034092020350920303DD
:1009E00080E093E0DF91CF911F910F91FF90EF9006
:1009F000DF90CF90BF90AF909F908F907F906F903F
:100A00005F904F903F902F9008958DE093E0FC0110
:100A100020E030E01082118212821382148215824B
:100A20002F5F3F4F369624323105A1F788529F4FF2
:100A300021E28D36920759F708958F929F92AF92D7
:100A4000BF92CF92DF92EF92FF920F931F93CF93BB
:100A5000DF93EC018B017A0169019B01AC01B601C6
:100A6000C7010E945804892B09F05AC39090712144
:100A700081E098124CC38BE792E00E94E4098091D8
:100A800073218111D2C08AE392E00E94E40983E0DD
:100A90000E942209B82E83E00E942E09AE01415027
:100AA000510996E0909FF001919FF00D112498ED6F
:100AB000949F9001959F300D1124E20FF31FE35F87
:100AC000FC4F9481911118C0B81216C09801B6015C
:100AD000C7010E9458045C0188EEA81683E0B8069E
:100AE00058F482E080930B0383E080930C0383E44B
:100AF00092E00E94E40904C037EEA32E33E0B32E47
:100B000081E00E942209982E81E00E942E0998011E
:100B10002F5F3F4F96E0929FF001939FF00D1124BD
:100B200098ED9C9FA0019D9F500D1124E40FF51F8F
:100B3000E35FFC4F9481911116C0981214C0AE016E
:100B4000B601C7010E9458044C018A159B0558F450
:100B500081E080930B0382E080930C038AE492E0AF
:100B60000E94E409540182E00E942209982E82E04A
:100B70000E942E0998012150310996E0929FF001C0
:100B8000939FF00D112498ED9C9FA0019D9F500D07
:100B90001124E40FF51FE35FFC4F9481911116C0FF
:100BA000981214C0AE01B601C7010E9458044C014E
:100BB0008A159B0558F483E080930B0381E08093B2
:100BC0000C038EE492E00E94E409540180E00E944C
:100BD0002209982E80E00E942E09AE014F5F5F4FE0
:100BE00096E0909FF001919FF00D112498ED949F55
:100BF0009001959F300D1124E20FF31FE35FFC4F2E
:100C00009481911184C2981282C29801B601C701E1
:100C10000E9458048A159B0508F079C210920B03B4
:100C200010920C0382E592E070C2809174218111D0
:100C3000CAC089E592E00E94E40983E00E9422098B
:100C4000B82E83E00E942E0998012150310996E0C8
:100C5000929FF001939FF00D112498ED9C9FA001AD
:100C60009D9F500D1124E40FF51FE35FFC4F94810D
:100C7000911117C0B81215C0AE01B601C7010E948C
:100C800058045C0187EEA81683E0B80650F483E0B0
:100C900080930B0380930C0383E492E00E94E409A9
:100CA00004C027EEA22E23E0B22E81E00E9422098A
:100CB000982E81E00E942E09AE014150510996E024
:100CC000909FF001919FF00D112498ED949F900159
:100CD000959F300D1124E20FF31FE35FFC4F9481C9
:100CE000911115C0981213C09801B601C7010E9456
:100CF00058044C018A159B0550F482E080930B0345
:100D000080930C038AE492E00E94E409540182E09B
:100D10000E942209982E82E00E942E09AE014F5FA8
:100D20005F4F96E0909FF001919FF00D112498ED98
:100D3000949F9001959F300D1124E20FF31FE35F04
:100D4000FC4F9481911115C0981213C09801B601FF
:100D5000C7010E9458044C018A159B0550F410925B
:100D60000B0381E080930C038EE492E00E94E4097F
:100D7000540180E00E942209982E80E00E942E09F2
:100D800098012F5F3F4F96E0929FF001939FF00DE7
:100D9000112498ED9C9FA0019D9F500D1124E40FFC
:100DA000F51FE35FFC4F94819111B1C19812AFC15F
:100DB000AE01B601C7010E9458048A159B0508F0D0
:100DC000A6C181E09CC1809175218111CBC089E6CB
:100DD00092E00E94E40983E00E942209B82E83E099
:100DE0000E942E09AE014F5F5F4F96E0909FF00189
:100DF000919FF00D112498ED949F9001959F300DD7
:100E00001124E20FF31FE35FFC4F9481911117C08F
:100E1000B81215C09801B601C7010E9458045C01C0
:100E200087EEA81683E0B80650F410920B0383E017
:100E300080930C0383E492E00E94E40904C097EEDF
:100E4000A92E93E0B92E81E00E942209982E81E01C
:100E50000E942E0998012150310996E0929FF001DD
:100E6000939FF00D112498ED9C9FA0019D9F500D24
:100E70001124E40FF51FE35FFC4F9481911116C01C
:100E8000981214C0AE01B601C7010E9458044C016B
:100E90008A159B0558F483E080930B0382E08093CE
:100EA0000C038AE492E00E94E409540182E00E946B
:100EB0002209982E82E00E942E0998012F5F3F4F51
:100EC00096E0929FF001939FF00D112498ED9C9F66
:100ED000A0019D9F500D1124E40FF51FE35FFC4F0F
:100EE0009481911115C0981213C0AE01B601C701CB
:100EF0000E9458044C018A159B0550F481E08093B0
:100F00000B0380930C038EE492E00E94E4095401E9
:100F100080E00E942209982E80E00E942E09AE01F6
:100F20004150510996E0909FF001919FF00D1124DE
:100F300098ED949F9001959F300D1124E20FF31FBF
:100F4000E35FFC4F94819111E2C09812E0C09801D8
:100F5000B601C7010E9458048A159B0508F0D7C046
:100F600082E0CDC0809176218111D3C082E792E0EA
:100F70000E94E40983E00E942209B82E83E00E94C7
:100F80002E0998012F5F3F4F96E0929FF001939FAB
:100F9000F00D112498ED9C9FA0019D9F500D1124F0
:100FA000E40FF51FE35FFC4F9481911117C0B81255
:100FB00015C0AE01B601C7010E9458045C0187EE5E
:100FC000A81683E0B80650F490920B0383E0809358
:100FD0000C0383E492E00E94E40904C087EEA82E8B
:100FE00083E0B82E81E00E942209982E81E00E94C1
:100FF0002E09AE014F5F5F4F96E0909FF001919FE9
:10100000F00D112498ED949F9001959F300D1124BF
:10101000E20FF31FE35FFC4F9481911115C098120A
:1010200013C09801B601C7010E9458044C018A15EB
:101030009B0550F410920B0382E080930C038AE42A
:1010400092E00E94E409540182E00E942209982E55
:1010500082E00E942E09AE014150510996E0909F16
:10106000F001919FF00D112498ED949F9001959FB0
:10107000300D1124E20FF31FE35FFC4F94819111B7
:1010800016C0981214C09801B601C7010E945804F6
:101090004C018A159B0558F482E080930B0381E094
:1010A00080930C038EE492E00E94E409540180E0F6
:1010B0000E942209982E80E00E942E09980121505A
:1010C000310996E0929FF001939FF00D112498ED65
:1010D0009C9FA0019D9F500D1124E40FF51FE35F1D
:1010E000FC4F9481911113C0981211C0AE01B6014A
:1010F000C7010E9458048A159B0548F483E0809339
:101100000B0310920C0382E692E00E94E40980E057
:1011100008C084E080930B0383E080930C03F7CF37
:1011200081E0DF91CF911F910F91FF90EF90DF90C1
:10113000CF90BF90AF909F908F9008950F931F9383
:10114000CF93DF93EC018B010E949E04FC0122816E
:10115000338140815181B801CE010E941D0591E08B
:10116000811101C090E0892FDF91CF911F910F91E4
:10117000089522E130E042E150E00E941D0591E037
:10118000811101C090E0892F08952FEF83ED90E346
:10119000215080409040E1F700C000008BE892E0D1
:1011A0000E94E40981E08093712108958AE992E028
:1011B0000E94E40980B180B9029A68EC88E00E943C
:1011C000170160E080E10E9417010C94C50888EACD
:1011D00092E00E94E40980B180B9009A68EC80E155
:1011E0000E94170160E088E00E9417010C94C50876
:1011F00086EB92E00E94E40980B180B980B18560FD
:1012000080B968EC88E00E94170168EC80E10E94D8
:1012100017010C94C50881EC92E00E94E40980B1AA
:1012200080B980B18A6080B968EC88E00E941701BB
:1012300068EC80E10E9417010C94C50880B180B170
:1012400080B9089546B121E030E0B90102C0660FCF
:10125000771F8A95E2F7CB018423089591E001C0BE
:10126000990F8A95EAF7892F08958091712181114C
:101270007BC08DEC92E00E94E40980910B03811108
:101280000FC01092732181E08093742180937521A7
:10129000809376218091040390910503019620C0EC
:1012A000813071F4809373211092742180937521A1
:1012B000809376218091060390910703019625C0C3
:1012C000823099F481E0809373218093742110928D
:1012D00075218093762180910403909105030197F5
:1012E00090930503809304031EC0833099F481E03A
:1012F00080937321809374218093752110927621BD
:1013000080910603909107030197909307038093C0
:10131000060309C081E08093732180937421809338
:1013200075218093762180910C03811102C00E9467
:10133000F80880910C03823011F40E94E708809134
:101340000C03813011F40E94D60880910C03833085
:1013500011F40E940B0980910C03843011F40E9457
:101360001E0984E080930C0381E0089581B111B8D7
:1013700081B18F6081B9089587B187B187B988B18C
:101380008F6088B908953E9A08951092C50087E647
:101390008093C400E0ECF0E080818D7F808388E161
:1013A0008093C10086E08093C20008959091C000B0
:1013B00095FFFCCF8093C60008958091C00087FF01
:1013C000FCCF8091C60008950F931F93CF938C019B
:1013D000C0E0F801EC0FF11D8081882321F00E940C
:1013E000D609CF5FF6CFCF911F910F910895CF927D
:1013F000DF92EF92FF920F931F93CF93DF936C01D5
:10140000F12C062F10E001501109CF2DD0E0C017AC
:10141000D10744F40E94DD09E82E0E94D6098DE030
:10142000E8120CC0CC0DDD1D1882DF91CF911F9109
:101430000F91FF90EF90DF90CF900895CC0DDD1DC0
:10144000E882F394E2CFCF93C82F64E60E94FF0AAC
:10145000805D0E94D6092AE08C2F622F0E94FF0A2D
:10146000C92F0E94FF0A80E3890F0E94D60980E3FA
:101470008C0FCF910C94D6090F931F93CF93DF93CA
:101480008C0160E177E20E940B0B80E3860F0E94E3
:10149000D609C80168EE73E00E940B0BCB01CAE0CD
:1014A000D0E0BE010E940B0B805D0E94D609C801EE
:1014B00064E670E00E940B0BCB01BE010E940B0B97
:1014C000805D0E94D609C801BE010E940B0B182F37
:1014D000CB01BE010E940B0B805D0E94D60980E308
:1014E000810FDF91CF911F910F910C94D6091F931B
:1014F000CF93DF931F92CDB7DEB7898317E0898141
:1015000090E0012E02C0959587950A94E2F780FF3E
:1015100002C081E301C080E30E94D609115078F730
:101520000F90DF91CF911F9108958A3010F4805D64
:101530000895895C0895CF93C82F82958F700E947B
:10154000950A0E94D6098C2F8F700E94950ACF9120
:101550000C94D6090F931F93CF93DF93D0E3C0E38E
:1015600010E30E94DD09082F0E94D6090D3021F0FA
:101570001C2FCD2FD02FF5CF1053D05384E6189FBA
:10158000D00D1124CC0FC0568C2F880F880F8C0FD4
:101590008D0FDF91CF911F910F91089510927221BD
:1015A00010920803E4E0F3E082E190E0918380830D
:1015B00093838283EBE0F3E010821182E3E7F1E2B0
:1015C000108281E0818382838383809371210895D7
:1015D0000E94CE0A0E9405050E94B6090E94BC091D
:1015E0000E943F010E945F010E94C5098BED92E0BD
:1015F0000E94E409809172210E949500FBCF991B03
:1016000079E004C0991F961708F0961B881F7A95F9
:10161000C9F780950895AA1BBB1B51E107C0AA1FFB
:10162000BB1FA617B70710F0A61BB70B881F991F83
:101630005A95A9F780959095BC01CD010895505811
:10164000BB27AA270E94370B0C940F0C0E94010C99
:1016500038F00E94080C20F039F49F3F19F426F46A
:101660000C94FE0B0EF4E095E7FB0C94F80BE92FBD
:101670000E94200C58F3BA17620773078407950776
:1016800020F079F4A6F50C94420C0EF4E0950B2EA4
:10169000BA2FA02D0B01B90190010C01CA01A001C4
:1016A0001124FF27591B99F0593F50F4503E68F11F
:1016B0001A16F040A22F232F342F4427585FF3CF60
:1016C000469537952795A795F0405395C9F77EF431
:1016D0001F16BA0B620B730B840BBAF09150A1F07A
:1016E000FF0FBB1F661F771F881FC2F70EC0BA0F00
:1016F000621F731F841F48F4879577956795B79588
:10170000F7959E3F08F0B0CF9395880F08F0992782
:10171000EE0F9795879508950E94280C88F09F57A3
:1017200098F0B92F9927B751B0F0E1F0660F771F05
:10173000881F991F1AF0BA95C9F714C0B13091F0FB
:101740000E94420CB1E008950C94420C672F782F50
:101750008827B85F39F0B93FCCF3869577956795C0
:10176000B395D9F73EF490958095709561957F4F2C
:101770008F4F9F4F0895E89409C097FB3EF49095D2
:101780008095709561957F4F8F4F9F4F9923A9F05A
:10179000F92F96E9BB279395F695879577956795E9
:1017A000B795F111F8CFFAF4BB0F11F460FF1BC02D
:1017B0006F5F7F4F8F4F9F4F16C0882311F096E9C0
:1017C00011C0772321F09EE8872F762F05C066236E
:1017D00071F096E8862F70E060E02AF09A95660F27
:1017E000771F881FDAF7880F9695879597F90895E0
:1017F00097F99F6780E870E060E008959FEF80ECC4
:10180000089500240A941616170618060906089566
:1018100000240A9412161306140605060895092ECC
:101820000394000C11F4882352F0BB0F40F4BF2B3B
:1018300011F460FF04C06F5F7F4F8F4F9F4F08957B
:1018400057FD9058440F551F59F05F3F71F0479571
:10185000880F97FB991F61F09F3F79F08795089556
:10186000121613061406551FF2CF4695F1DF08C075
:10187000161617061806991FF1CF86957105610592
:1018800008940895E894BB2766277727CB0197F93A
:1018900008950E945C0C0C940F0C0E94010C38F00F
:1018A0000E94080C20F0952311F00C94F80B0C9476
:1018B000FE0B11240C94430C0E94200C70F3959F96
:1018C000C1F3950F50E0551F629FF001729FBB2737
:1018D000F00DB11D639FAA27F00DB11DAA1F649FD3
:1018E0006627B00DA11D661F829F2227B00DA11D86
:1018F000621F739FB00DA11D621F839FA00D611D0C
:10190000221F749F3327A00D611D231F849F600D2C
:10191000211D822F762F6A2F11249F5750409AF055
:10192000F1F088234AF0EE0FFF1FBB1F661F771FE1
:10193000881F91505040A9F79E3F510580F00C94AC
:10194000F80B0C94430C5F3FE4F3983ED4F3869578
:1019500077956795B795F795E7959F5FC1F7FE2B4C
:10196000880F911D9695879597F9089519F416F4A7
:101970000C94FE0B0C94FC0C0E94280CB8F39923D9
:10198000C9F3B6F39F57550B87FF0E940A0D002439
:10199000A0E640EA900180585695979528F4805C1F
:1019A000660F771F881F20F026173707480730F487
:1019B000621B730B840B202931294A2BA69517949F
:1019C0000794202531254A2758F7660F771F881F6F
:1019D00020F026173707480730F4620B730B840B8F
:1019E000200D311D411DA09581F7B901842F91581B
:1019F000880F9695879508959F3F31F0915020F478
:101A0000879577956795B795880F911D96958795DA
:101A100097F9089591505040660F771F881FD2F7AD
:061A20000895F894FFCFC9
:101A2600696E6974200D200A004C6F6F6B61726FCE
:101A3600756E64200D200A0053746570200D200A0F
:101A4600003441200D0A003442200D0A0043686527
:101A5600636B4F4253200D200A0048656164207075
:101A66007820002042200D200A00204C2000205221
:101A760020002046200D200A004865616420707908
:101A860020002046200D0A200048656164206D78FC
:101A9600200048656164206D792000546F205468E9
:101AA600617420426F78200D200A0053746F7073A2
:101AB600204D6F746F72200D0A005475726E20529D
:101AC60069676874200D0A005475726E204C65664D
:101AD60074200D200A00466F7277617264200D0A29
:101AE600004261636B77617264200D0A0057686576
:101AF6007265596F75476F203A20004927616D203E
:101B060054686520427261766520416476656E741C
:101B160075726520562E30312E3030200D200A0089
:00000001FF
