:100000000C9472000C9493000C9493000C94930045
:100010000C9493000C9493000C9493000C94930014
:100020000C9493000C9493000C9493000C94930004
:100030000C9493000C9493000C9493000C949300F4
:100040000C9493000C9493000C9493000C949300E4
:100050000C9493000C9493000C9493000C949300D4
:100060000C9493000C9493000C9493000C949300C4
:100070000C9493000C9493000C9493000C949300B4
:100080000C9493000C9493000C9493000C949300A4
:100090000C9493000C9493000C9493000C94930094
:1000A0000C9493000C9493000C9493000C94930084
:1000B0000C9493000C9493000C9493000C94930074
:1000C0000C9493000C9493000C9493000C94930064
:1000D0000C9493000C9493000C9493000C94930054
:1000E0000C94930011241FBECFEFD1E2DEBFCDBF31
:1000F00000E00CBF13E0A0E0B2E0E4EAF9E100E0C8
:100100000BBF02C007900D92AE33B107D9F72FE1B4
:10011000AEE3B3E001C01D92A837B207E1F70E9439
:10012000A70A0C94D00C0C940000CF93C82F8230F7
:1001300009F442C028F4882381F0813021F18DC078
:10014000843009F476C008F449C0853009F085C0D0
:100150000E948408C093701F80C060914403709116
:10016000450380914203909143030E9487010E94BE
:10017000F40881E08093701F80E092E00E94A30960
:10018000109246036AC060914403709145038091C8
:100190004203909143030E948701813041F482E041
:1001A0008093701F89E092E00E94A30903C083E05E
:1001B0008093701F81E04FC00E94F40888E192E0B4
:1001C0000E94A30980914603813021F0833011F011
:1001D000843011F48093701F82E03DC0609144032D
:1001E0007091450380914203909143030E94370828
:1001F000C82F8093711F811108C081E292E00E9494
:10020000A30982E08093701F12C0823041F484E021
:100210008093701F87E292E00E94A30908C081309A
:1002200031F48FE292E00E94A309C093701F83E033
:1002300012C06091440370914503809142039091F4
:1002400043030E947808892B11F482E001C085E005
:100250008093701F84E080934603CF91089590911E
:10026000010190910101982B90930101803161F07F
:10027000813199F08830D1F470E07093A9006093D7
:10028000A80084E392E007C070E07093AB00609335
:10029000AA008AE392E00C94A30970E07093A9008D
:1002A0006093A8007093AB006093AA000895E0EA01
:1002B000F0E08081836A8083E1EAF0E080818360FE
:1002C0008083089590917C00907F8F70892B80931C
:1002D0007C0080917A00806480937A0080917A001B
:1002E00086FDFCCF80917800909179000895ECE72D
:1002F000F0E0808180648083EAE7F0E080818468B8
:100300008083089596958795969587950895AF92E1
:10031000BF92CF92DF92EF92FF920F931F93CF93F2
:10032000DF935C012FEFA21AB20A7B012FEFE21AD2
:10033000F20A2DE3A216B10408F069C22DE3E21619
:10034000F10408F064C2D0906F1F21E0D21266C29F
:10035000EB018C0180E492E00E94A3098091721F5E
:10036000811194C08DE492E00E94A30983E00E9471
:10037000E108C82E83E00E94ED0898012150310960
:100380009CE3929FF001939FF00D1124EC0FFD1F51
:10039000EE0FFF1FE55BFC4F908191110DC0C8125D
:1003A0000BC0D08282E08093490383E080934A03AC
:1003B00086E592E00E94A30981E00E94E108C82E30
:1003C00081E00E94ED089CE3909FF001919FF00D69
:1003D0001124EE0DFF1DEE0FFF1FE55BFC4F90811A
:1003E00091110DC0C8120BC081E080838093490336
:1003F00082E080934A038DE592E00E94A30982E0A7
:100400000E94E108F82E82E00E94ED089CE3909F94
:10041000F001919FF00D11249E0121503109E20F4E
:10042000F31FEE0FFF1FE55BFC4F908191110DC094
:10043000F8120BC081E0808393E09093490380938E
:100440004A0381E692E00E94A30980E00E94E1084D
:10045000182F80E00E94ED089CE39A9DB0019B9DBF
:10046000700D1124C60FD71FCC0FDD1FC55BDC4FED
:1004700098819111C9C11813C7C181E08883109276
:10048000490310924A0385E692E095C08091731F5C
:10049000811194C08CE692E00E94A30983E00E943F
:1004A000E108C82E83E00E94ED089CE3909FF001D4
:1004B000919FF00D11249E0121503109E20FF31F8D
:1004C000EE0FFF1FE55BFC4F908191110CC0C8122D
:1004D0000AC0D08283E08093490380934A0386E573
:1004E00092E00E94A30981E00E94E108C82E81E009
:1004F0000E94ED089801215031099CE3929FF00180
:10050000939FF00D1124EC0FFD1FEE0FFF1FE55B15
:10051000FC4F908191110DC0C8120BC081E0808307
:1005200082E08093490380934A038DE592E00E9424
:10053000A30982E00E94E108C82E82E00E94ED0833
:100540009CE39A9DB0019B9D700D1124C60FD71F8F
:10055000CC0FDD1FC55BDC4F988191110CC0C81218
:100560000AC081E088831092490380934A0381E6A0
:1005700092E00E94A30980E00E94E108C82F80E079
:100580000E94ED089CE3909FF001919FF00D1124D3
:10059000EE0DFF1DEE0FFF1FE55BFC4F90819111EB
:1005A00033C1C81331C181E0808380934903109225
:1005B0004A0385E792E00E94A30926C18091741F37
:1005C00081118DC08CE792E00E94A30983E00E9414
:1005D000E108C82E83E00E94ED089CE39A9DF0019B
:1005E0009B9DF00D1124EC0FFD1FEE0FFF1FE55B2F
:1005F000FC4F908191110CC0C8120AC0D082109299
:10060000490383E080934A0386E592E00E94A309B0
:1006100081E00E94E108C82E81E00E94ED089CE381
:10062000909FF001919FF00D11249E0121503109FE
:10063000E20FF31FEE0FFF1FE55BFC4F908191115E
:100640000EC0C8120CC081E0808383E08093490310
:1006500082E080934A038DE592E00E94A30982E044
:100660000E94E108C82E82E00E94ED089CE3909F62
:10067000F001919FF00D1124EE0DFF1DEE0FFF1FF5
:10068000E55BFC4F908191110CC0C8120AC081E05B
:1006900080838093490380934A0381E692E00E941D
:1006A000A30980E00E94E108F82E80E00E94ED0896
:1006B000015011099CE3909FB001919F700D11248E
:1006C000C60FD71FCC0FDD1FC55BDC4F9881911182
:1006D0009BC0F81299C081E0888382E066CF809148
:1006E000751F81118CC085E892E00E94A30983E008
:1006F0000E94E108C82E83E00E94ED089CE3909FD1
:10070000F001919FF00D1124EE0DFF1DEE0FFF1F64
:10071000E55BFC4F908191110CC0C8120AC0D082D9
:10072000D092490383E080934A0386E592E00E94D9
:10073000A30981E00E94E108F82E81E00E94ED0803
:100740009CE39A9DF0019B9DF00D1124EC0FFD1F81
:10075000EE0FFF1FE55BFC4F908191110DC0F81269
:100760000BC081E080831092490382E080934A03AA
:100770008DE592E00E94A30982E00E94E108F82E34
:1007800082E00E94ED089801215031099CE3929F7C
:10079000F001939FF00D1124EC0FFD1FEE0FFF1FD2
:1007A000E55BFC4F908191110DC0F8120BC081E008
:1007B000808392E09093490380934A0381E692E01C
:1007C0000E94A30980E00E94E108F82E80E00E94C8
:1007D000ED0821979CE3909FB001919F700D11242B
:1007E000C60FD71FCC0FDD1FC55BDC4F9881911161
:1007F0000BC0F81209C081E0888383E0D6CE84E084
:100800008093490383E006C010926F1F09C084E003
:100810008093490380934A03D12C02C0DD24D394F2
:100820008D2DDF91CF911F910F91FF90EF90DF9071
:10083000CF90BF90AF9008952CE3AC01249FC001EE
:10084000259F900D1124FC01E60FF71FEE0FFF1FEF
:10085000E55BFC4F81E0808308958F929F92AF9279
:10086000BF92CF92DF92EF92FF920F931F93CF939D
:10087000DF93EB018901841B950BBC0180E090E0C4
:100880000E947A0B6B017C01BE01601B710B80E042
:1008900090E00E947A0B4B015C01A7019601C70111
:1008A000B6010E94080C6B017C01A5019401C501F1
:1008B000B4010E94080C9B01AC01C701B6010E9463
:1008C000DF0A0E947B0C0E944B0BCB01DF91CF9182
:1008D0001F910F91FF90EF90DF90CF90BF90AF905E
:1008E0009F908F9008954F925F926F927F928F9218
:1008F0009F92AF92BF92CF92DF92EF92FF920F93AF
:100900001F93CF93DF932C013B018BE4C82E83E030
:10091000D82E9CE3A92EB12C00E010E07601C0E0B7
:10092000D0E0F7018081813019F58181811120C0EB
:100930009E01A801B301C2010E942D044C010E9436
:10094000FB098AE792E00E94A309C5010E94FB0906
:100950008EE892E00E94A3098A149B0448F4109345
:100960003F0300933E03D0934103C09340035401DF
:100970002196F2E0EF0EF11CCC33D10591F60F5F1A
:100980001F4F88E7C80ED11C0C33110539F68EE3D2
:1009900093E00E94FB098EE393E0DF91CF911F91DA
:1009A0000F91FF90EF90DF90CF90BF90AF909F900E
:1009B0008F907F906F905F904F9008958BE493E0BD
:1009C000FC012CE330E01082118221503109329673
:1009D00021153105C1F788589F4F2FE18B369207BB
:1009E00079F708958F929F92AF92BF92CF92DF9244
:1009F000EF92FF920F931F93CF93DF93EC018B0144
:100A00007A01690182E992E00E94A3099801AE018E
:100A1000B601C7010E942D04892B09F01AC39090DA
:100A20006F1F81E098120CC38EE992E00E94A30927
:100A30008091721F8111C2C08DE492E00E94A309CF
:100A400083E00E94E108B82E83E00E94ED08AE0129
:100A5000415051099CE3949FF001959FF00D1124A2
:100A6000E00FF11FEE0FFF1FE55BFC4F908191112E
:100A700018C0B81216C09801B601C7010E942D0413
:100A80005C0188EEA81683E0B80658F482E08093F3
:100A9000490383E080934A0386E592E00E94A3091C
:100AA00004C057EEA52E53E0B52E81E00E94E10868
:100AB000982E81E00E94ED0898012F5F3F4F9CE344
:100AC0009C9FF0019D9FF00D1124E20FF31FEE0F8C
:100AD000FF1FE55BFC4F9081911116C0981214C066
:100AE000AE01B601C7010E942D044C018A159B0579
:100AF00058F481E08093490382E080934A038DE5B6
:100B000092E00E94A309540182E00E94E108982E1D
:100B100082E00E94ED089801215031099CE39C9FDE
:100B2000F0019D9FF00D1124E20FF31FEE0FFF1F48
:100B3000E55BFC4F9081911116C0981214C0AE0174
:100B4000B601C7010E942D044C018A159B0558F47B
:100B500083E08093490381E080934A0381E692E039
:100B60000E94A309540180E00E94E108982E80E0D1
:100B70000E94ED08AE014F5F5F4F9CE3949FF00130
:100B8000959FF00D1124E00FF11FEE0FFF1FE55BA5
:100B9000FC4F9081911154C2981252C29801B60133
:100BA000C7010E942D048A159B0508F049C21092C6
:100BB000490310924A0385E692E040C28091731F78
:100BC0008111BAC08CE692E00E94A30983E00E94E2
:100BD000E108B82E83E00E94ED0898012150310908
:100BE0009CE39C9FF0019D9FF00D1124E20FF31FE9
:100BF000EE0FFF1FE55BFC4F9081911117C0B812FB
:100C000015C0AE01B601C7010E942D045C0187EE3C
:100C1000A81683E0B80650F483E0809349038093DC
:100C20004A0386E592E00E94A30904C0E7EEAE2ED7
:100C3000E3E0BE2E81E00E94E108982E81E00E9450
:100C4000ED08AE01415051099CE3949FF001959F3E
:100C5000F00D1124E00FF11FEE0FFF1FE55BFC4FBD
:100C60009081911115C0981213C09801B601C70167
:100C70000E942D044C018A159B0550F482E080935C
:100C8000490380934A038DE592E00E94A309540131
:100C900082E00E94E108982E82E00E94ED08AE01F9
:100CA0004F5F5F4F9CE3949FF001959FF00D1124DF
:100CB000E00FF11FEE0FFF1FE55BFC4F90819111DC
:100CC00015C0981213C09801B601C7010E942D04E7
:100CD0004C018A159B0550F41092490381E08093E2
:100CE0004A0381E692E00E94A309540180E00E9439
:100CF000E108982E80E00E94ED0898012F5F3F4F99
:100D00009CE39C9FF0019D9FF00D1124E20FF31FC7
:100D1000EE0FFF1FE55BFC4F9081911191C198127E
:100D20008FC1AE01B601C7010E942D048A159B0533
:100D300008F086C181E07CC18091741F8111BBC025
:100D40008CE792E00E94A30983E00E94E108B82E9C
:100D500083E00E94ED08AE014F5F5F4F9CE3949FDC
:100D6000F001959FF00D1124E00FF11FEE0FFF1F12
:100D7000E55BFC4F9081911117C0B81215C0980126
:100D8000B601C7010E942D045C0187EEA81683E01E
:100D9000B80650F41092490383E080934A0386E535
:100DA00092E00E94A30904C0B7EEAB2EB3E0BB2EC5
:100DB00081E00E94E108982E81E00E94ED089801F0
:100DC000215031099CE39C9FF0019D9FF00D11245F
:100DD000E20FF31FEE0FFF1FE55BFC4F90819111B7
:100DE00016C0981214C0AE01B601C7010E942D04AE
:100DF0004C018A159B0558F483E08093490382E0F7
:100E000080934A038DE592E00E94A309540182E099
:100E10000E94E108982E82E00E94ED0898012F5F61
:100E20003F4F9CE39C9FF0019D9FF00D1124E20F2A
:100E3000F31FEE0FFF1FE55BFC4F9081911115C072
:100E4000981213C0AE01B601C7010E942D044C01D7
:100E50008A159B0550F481E08093490380934A03EF
:100E600081E692E00E94A309540180E00E94E1081B
:100E7000982E80E00E94ED08AE01415051099CE39C
:100E8000949FF001959FF00D1124E00FF11FEE0FDC
:100E9000FF1FE55BFC4F90819111D2C09812D0C02A
:100EA0009801B601C7010E942D048A159B0508F020
:100EB000C7C082E0BDC08091751F8111C3C085E8A5
:100EC00092E00E94A30983E00E94E108B82E83E02B
:100ED0000E94ED0898012F5F3F4F9CE39C9FF0011B
:100EE0009D9FF00D1124E20FF31FEE0FFF1FE55B36
:100EF000FC4F9081911117C0B81215C0AE01B60118
:100F0000C7010E942D045C0187EEA81683E0B80695
:100F100050F49092490383E080934A0386E592E07F
:100F20000E94A30904C047EEA42E43E0B42E81E042
:100F30000E94E108982E81E00E94ED08AE014F5F0B
:100F40005F4F9CE3949FF001959FF00D1124E00FFB
:100F5000F11FEE0FFF1FE55BFC4F9081911115C053
:100F6000981213C09801B601C7010E942D044C01CC
:100F70008A159B0550F41092490382E080934A033E
:100F80008DE592E00E94A309540182E00E94E108ED
:100F9000982E82E00E94ED08AE01415051099CE379
:100FA000949FF001959FF00D1124E00FF11FEE0FBB
:100FB000FF1FE55BFC4F9081911116C0981214C081
:100FC0009801B601C7010E942D044C018A159B05AA
:100FD00058F482E08093490381E080934A0381E6DC
:100FE00092E00E94A309540180E00E94E108982E3B
:100FF00080E00E94ED089801215031099CE39C9FFC
:10100000F0019D9FF00D1124E20FF31FEE0FFF1F63
:10101000E55BFC4F9081911113C0981211C0AE0195
:10102000B601C7010E942D048A159B0548F483E090
:101030008093490310924A0385E792E00E94A30936
:1010400080E008C084E08093490383E080934A03F2
:10105000F7CF81E0DF91CF911F910F91FF90EF903B
:10106000DF90CF90BF90AF909F908F900895EF92B8
:10107000FF920F931F93CF93DF938C017B018EEA36
:1010800092E00E94A309B701C8010E947304EC0119
:101090008DEB92E00E94A309888199810E94FB094F
:1010A0008AE792E00E94A3098A819B810E94FB0942
:1010B00088E392E00E94A309488159812A813B81FB
:1010C0004115510519F42115310549F0B701C80141
:1010D0000E94F20491E0811103C090E001C092E00F
:1010E000892FDF91CF911F910F91FF90EF9008957D
:1010F0002EE130E04EE150E00E94F20491E08111D7
:1011000001C090E0892F08952FEF83ED90E32150E7
:1011100080409040E1F700C0000089EC92E00E941E
:10112000A30981E080936F1F089588ED92E00E94EB
:10113000A30980B180B9029A6AEA88E00E942F016F
:1011400060E080E10E942F010C94840886EE92E01A
:101150000E94A30980B180B9009A6AEA80E10E94E6
:101160002F0160E088E00E942F010C94840884EF36
:1011700092E00E94A30980B180B980B1856080B9F6
:1011800062E888E00E942F0162E880E10E942F015E
:101190000C9484088FEF92E00E94A30980B180B97B
:1011A00080B18A6080B962E888E00E942F0162E81D
:1011B00080E10E942F010C94840880B180B180B935
:1011C000089546B121E030E0B90102C0660F771FF3
:1011D0008A95E2F7CB018423089591E001C0990F2D
:1011E0008A95EAF7892F089580916F1F81117BC03E
:1011F0008BE093E00E94A3098091490381110FC005
:101200001092721F81E08093731F8093741F8093EC
:10121000751F8091420390914303019620C0813055
:1012200071F48093721F1092731F8093741F8093C8
:10123000751F8091440390914503019625C082302B
:1012400099F481E08093721F8093731F1092741F32
:101250008093751F8091420390914303019790936F
:101260004303809342031EC0833099F481E080934E
:10127000721F8093731F8093741F1092751F80914B
:101280004403909145030197909345038093440351
:1012900009C081E08093721F8093731F8093741F35
:1012A0008093751F80914A03811102C00E94B70884
:1012B00080914A03823011F40E94A60880914A036B
:1012C000813011F40E94950880914A03833011F413
:1012D0000E94CA0880914A03843011F40E94DD08FC
:1012E00084E080934A0381E0089581B111B881B10F
:1012F0008F6081B9089587B187B187B988B18F6050
:1013000088B908953E9A08951092C50087E68093A3
:10131000C400E0ECF0E080818D7F808388E18093E1
:10132000C10086E08093C20008959091C00095FFAF
:10133000FCCF8093C60008958091C00087FFFCCF4A
:101340008091C60008950F931F93CF938C01C0E046
:10135000F801EC0FF11D8081882321F00E9495098E
:10136000CF5FF6CFCF911F910F910895CF92DF926B
:10137000EF92FF920F931F93CF93DF936C01F12CA9
:10138000062F10E001501109CF2DD0E0C017D10772
:1013900044F40E949C09E82E0E9495098DE0E81211
:1013A0000CC0CC0DDD1D1882DF91CF911F910F91E4
:1013B000FF90EF90DF90CF900895CC0DDD1DE88277
:1013C000F394E2CFCF93C82F64E60E94BE0A805DFB
:1013D0000E9495092AE08C2F622F0E94BE0AC92F15
:1013E0000E94BE0A80E3890F0E94950980E38C0F5A
:1013F000CF910C9495090F931F93CF93DF938C019A
:1014000060E177E20E94CA0A80E3860F0E94950994
:10141000C80168EE73E00E94CA0ACB01CAE0D0E0BE
:10142000BE010E94CA0A805D0E949509C80164E657
:1014300070E00E94CA0ACB01BE010E94CA0A805D08
:101440000E949509C801BE010E94CA0A182FCB014B
:10145000BE010E94CA0A805D0E94950980E3810F47
:10146000DF91CF911F910F910C9495091F93CF930A
:10147000DF931F92CDB7DEB7898317E0898190E0B3
:10148000012E02C0959587950A94E2F780FF02C06D
:1014900081E301C080E30E949509115078F70F9015
:1014A000DF91CF911F9108958A3010F4805D0895E7
:1014B000895C0895CF93C82F82958F700E94540A3B
:1014C0000E9495098C2F8F700E94540ACF910C9422
:1014D00095090F931F93CF93DF93D0E3C0E310E3FD
:1014E0000E949C09082F0E9495090D3021F01C2FA5
:1014F000CD2FD02FF5CF1053D05384E6189FD00DA9
:101500001124CC0FC0568C2F880F880F8C0F8D0F95
:10151000DF91CF911F910F9108951092701F10923B
:101520004603E2E4F3E08EE190E0918380839383CD
:101530008283E9E4F3E010821182E2E7FFE11082A6
:1015400081E081838283838380936F1F08950E944B
:101550008D0A0E94DE040E9475090E947B090E9488
:1015600057010E9477010E94840989E193E00E945B
:10157000A3098091701F0E949500FBCF991B79E011
:1015800004C0991F961708F0961B881F7A95C9F713
:1015900080950895AA1BBB1B51E107C0AA1FBB1F62
:1015A000A617B70710F0A61BB70B881F991F5A95EF
:1015B000A9F780959095BC01CD0108955058BB279F
:1015C000AA270E94F60A0C94CE0B0E94C00B38F09A
:1015D0000E94C70B20F039F49F3F19F426F40C94B5
:1015E000BD0B0EF4E095E7FB0C94B70BE92F0E94BE
:1015F000DF0B58F3BA17620773078407950720F0CB
:1016000079F4A6F50C94010C0EF4E0950B2EBA2F8C
:10161000A02D0B01B90190010C01CA01A0011124F8
:10162000FF27591B99F0593F50F4503E68F11A16A4
:10163000F040A22F232F342F4427585FF3CF469535
:1016400037952795A795F0405395C9F77EF41F1657
:10165000BA0B620B730B840BBAF09150A1F0FF0F21
:10166000BB1F661F771F881FC2F70EC0BA0F621F0D
:10167000731F841F48F4879577956795B795F795FD
:101680009E3F08F0B0CF9395880F08F09927EE0F92
:101690009795879508950E94E70B88F09F5798F0DB
:1016A000B92F9927B751B0F0E1F0660F771F881F67
:1016B000991F1AF0BA95C9F714C0B13091F00E9481
:1016C000010CB1E008950C94010C672F782F882746
:1016D000B85F39F0B93FCCF3869577956795B395A8
:1016E000D9F73EF490958095709561957F4F8F4F17
:1016F0009F4F0895E89409C097FB3EF4909580951C
:10170000709561957F4F8F4F9F4F9923A9F0F92FC7
:1017100096E9BB279395F695879577956795B79545
:10172000F111F8CFFAF4BB0F11F460FF1BC06F5F2B
:101730007F4F8F4F9F4F16C0882311F096E911C03D
:10174000772321F09EE8872F762F05C0662371F05E
:1017500096E8862F70E060E02AF09A95660F771F72
:10176000881FDAF7880F9695879597F9089597F966
:101770009F6780E870E060E008959FEF80EC089537
:1017800000240A9416161706180609060895002460
:101790000A9412161306140605060895092E0394DA
:1017A000000C11F4882352F0BB0F40F4BF2B11F44E
:1017B00060FF04C06F5F7F4F8F4F9F4F089557FDAD
:1017C0009058440F551F59F05F3F71F04795880FAF
:1017D00097FB991F61F09F3F79F087950895121646
:1017E00013061406551FF2CF4695F1DF08C01616F2
:1017F00017061806991FF1CF8695710561050894A3
:101800000895E894BB2766277727CB0197F90895B9
:101810000E941B0C0C94CE0B0E94C00B38F00E944F
:10182000C70B20F0952311F00C94B70B0C94BD0B53
:1018300011240C94020C0E94DF0B70F3959FC1F3EE
:10184000950F50E0551F629FF001729FBB27F00D6E
:10185000B11D639FAA27F00DB11DAA1F649F6627C3
:10186000B00DA11D661F829F2227B00DA11D621F12
:10187000739FB00DA11D621F839FA00D611D221FCC
:10188000749F3327A00D611D231F849F600D211DB0
:10189000822F762F6A2F11249F5750409AF0F1F033
:1018A00088234AF0EE0FFF1FBB1F661F771F881F9C
:1018B00091505040A9F79E3F510580F00C94B70B12
:1018C0000C94020C5F3FE4F3983ED4F38695779531
:1018D0006795B795F795E7959F5FC1F7FE2B880F42
:1018E000911D9695879597F9089519F416F40C941F
:1018F000BD0B0C94BB0C0E94E70BB8F39923C9F302
:10190000B6F39F57550B87FF0E94C90C0024A0E631
:1019100040EA900180585695979528F4805C660FB0
:10192000771F881F20F026173707480730F4621BFF
:10193000730B840B202931294A2BA6951794079401
:10194000202531254A2758F7660F771F881F20F07A
:1019500026173707480730F4620B730B840B200DF2
:10196000311D411DA09581F7B901842F9158880F31
:101970009695879508959F3F31F0915020F4879573
:1019800077956795B795880F911D9695879597F9E7
:10199000089591505040660F771F881FD2F7089521
:0419A000F894FFCFE9
:1019A400696E6974200D200A004C6F6F6B61726F51
:1019B400756E64200D200A0053746570200D200A92
:1019C4000046414C5345004E454954484552005445
:1019D400525545003441200D0A003442200D0A00BE
:1019E400436865636B4F4253200D200A00486561CC
:1019F4006420707820002042200D200A00204C2012
:101A040000205220002046200D200A004865616411
:101A140020707920002046200D0A2000486561646A
:101A2400206D78200048656164206D792000207C59
:101A34002000546F207468617420426F7800546FE2
:101A4400205468617420426F78200D200A002046DB
:101A5400696E6454686544657374200A0020706F6D
:101A64007344657374203A200053746F7073204D6F
:101A74006F746F72200D0A005475726E205269677C
:101A84006874200D0A005475726E204C65667420CB
:101A94000D200A00466F7277617264200D0A0042BD
:101AA40061636B77617264200D0A00576865726523
:101AB400596F75476F203A20004927616D2054689B
:101AC4006520427261766520416476656E74757234
:0E1AD4006520562E30312E3030200D200A00B5
:00000001FF
