:100000000C9472000C9493000C9493000C94930045
:100010000C9493000C9493000C9493000C94930014
:100020000C9493000C9493000C9493000C94930004
:100030000C9493000C9493000C9493000C949300F4
:100040000C9493000C9493000C9493000C949300E4
:100050000C9493000C9493000C9493000C949300D4
:100060000C9493000C9493000C9493000C949300C4
:100070000C9493000C9493000C9493000C949300B4
:100080000C9493000C9493000C9493000C949300A4
:100090000C9493000C9493000C9493000C94930094
:1000A0000C9493000C9493000C9493000C94930084
:1000B0000C9493000C9493000C9493000C94930074
:1000C0000C9493000C9493000C9493000C94930064
:1000D0000C9493000C9493000C9493000C94930054
:1000E0000C94930011241FBECFEFD1E2DEBFCDBF31
:1000F00000E00CBF13E0A0E0B2E0EEE7F9E100E0C1
:100100000BBF02C007900D92AE33B107D9F72FE1B4
:10011000AEE3B3E001C01D92A837B207E1F70E9439
:10012000940A0C94BD0C0C940000CF93C82F82301D
:1001300009F442C028F4882381F0813021F18BC07A
:10014000843009F474C008F449C0853009F083C0D4
:100150000E94CA08C093701F7EC0609144037091D2
:10016000450380914203909143030E9485010E94C0
:10017000E10881E08093701F80E092E00E94900986
:100180001092460368C060914403709145038091CA
:100190004203909143030E948501813041F482E043
:1001A0008093701F89E092E00E94900903C083E071
:1001B0008093701F81E04DC00E94E10888E192E0C9
:1001C0000E94900980914603813021F0833011F024
:1001D000843011F48093701F82E03BC0609144032F
:1001E0007091450380914203909143030E9424083B
:1001F0008093711F853031F481E292E00E94900972
:1002000082E007C0873041F487E292E00E949009C3
:1002100081E08093701F09C0833039F484E08093BB
:10022000701F8CE292E00E94900983E012C06091FE
:1002300044037091450380914203909143030E94CF
:100240006508811102C082E001C085E08093701FC3
:1002500084E080934603CF9108959091010190919D
:100260000101982B90930101803161F0813199F067
:100270008830D1F470E07093A9006093A80084E303
:1002800092E007C070E07093AB006093AA008AE32D
:1002900092E00C94900970E07093A9006093A8001C
:1002A0007093AB006093AA000895E0EAF0E08081CB
:1002B000836A8083E1EAF0E080818360808308952F
:1002C00090917C00907F8F70892B80937C0080912F
:1002D0007A00806480937A0080917A0086FDFCCF5A
:1002E00080917800909179000895ECE7F0E08081AA
:1002F00080648083EAE7F0E08081846880830895E9
:1003000096958795969587950895EF92FF920F930E
:100310001F93CF93DF93F0906F1F21E0F2126CC216
:10032000EB018C0180E492E00E9490098091721FA1
:10033000811199C08DE492E00E94900983E00E94AF
:10034000CE08E82E83E00E94DA0898012150310996
:100350009CE3929FF001939FF00D1124EC0FFD1F81
:10036000EE0FFF1FE55BFC4F908191110DC0E8126D
:100370000BC0F08282E08093490383E080934A03BC
:1003800086E592E00E94900981E00E94CE08E82E66
:1003900081E00E94DA089CE3909FF001919FF00DAC
:1003A00011249E012F5F3F4FE20FF31FEE0FFF1F3F
:1003B000E55BFC4F908191110DC0E8120BC081E00C
:1003C00080838093490382E080934A038DE592E025
:1003D0000E94900982E00E94CE08E82E82E00E94EE
:1003E000DA089CE3909FF001919FF00D11249E018B
:1003F00021503109E20FF31FEE0FFF1FE55BFC4FA9
:10040000908191110DC0E8120BC081E0808393E0D0
:100410009093490380934A0381E692E00E949009F9
:1004200080E00E94CE08E82E80E00E94DA080F5F8C
:100430001F4F9CE3909FB001919F700D1124C60F38
:10044000D71FCC0FDD1FC55BDC4F98819111D7C141
:10045000E812D5C181E088831092490310924A03C3
:1004600085E692E099C08091731F811198C08CE657
:1004700092E00E94900983E00E94CE08E82E83E07B
:100480000E94DA089CE3909FF001919FF00D1124E7
:100490009E0121503109E20FF31FEE0FFF1FE55BB4
:1004A000FC4F908191110CC0E8120AC0F08283E0E9
:1004B0008093490380934A0386E592E00E94900965
:1004C00081E00E94CE08E82E81E00E94DA089801BF
:1004D000215031099CE3929FF001939FF00D11246C
:1004E000EC0FFD1FEE0FFF1FE55BFC4F908191119C
:1004F0000DC0E8120BC081E0808382E08093490345
:1005000080934A038DE592E00E94900982E00E9468
:10051000CE08E82E82E00E94DA0898012F5F3F4F54
:100520009CE3929FF001939FF00D1124EC0FFD1FAF
:10053000EE0FFF1FE55BFC4F908191110CC0E8129C
:100540000AC081E080831092490380934A0381E6C8
:1005500092E00E94900980E00E94CE08E82E80E0A0
:100560000E94DA0821969CE3909FB001919F700D44
:100570001124C60FD71FCC0FDD1FC55BDC4F988140
:1005800091113DC1E8123BC181E08883809349030A
:1005900010924A0385E792E00E94900930C1809151
:1005A000741F811193C08CE792E00E94900983E050
:1005B0000E94CE08E82E83E00E94DA0898012F5F9F
:1005C0003F4F9CE3929FF001939FF00D1124EC0F9D
:1005D000FD1FEE0FFF1FE55BFC4F908191110CC0DA
:1005E000E8120AC0F0821092490383E080934A0324
:1005F00086E592E00E94900981E00E94CE08E82EF4
:1006000081E00E94DA089CE3909FF001919FF00D39
:1006100011249E0121503109E20FF31FEE0FFF1F3D
:10062000E55BFC4F908191110EC0E8120CC081E097
:10063000808383E08093490382E080934A038DE5C1
:1006400092E00E94900982E00E94CE08E82E82E0AB
:100650000E94DA089CE3909FF001919FF00D112415
:100660009E012F5F3F4FE20FF31FEE0FFF1FE55B71
:10067000FC4F908191110CC0E8120AC081E0808388
:100680008093490380934A0381E692E00E94900997
:1006900080E00E94CE08E82E80E00E94DA08015037
:1006A00011099CE3909FB001919F700D1124C60F1A
:1006B000D71FCC0FDD1FC55BDC4F988191119FC008
:1006C000E8129DC081E0888382E060CF8091751F31
:1006D000811192C085E892E00E94900983E00E9417
:1006E000CE08E82E83E00E94DA089CE3909FF00198
:1006F000919FF00D11249E012F5F3F4FE20FF31FDA
:10070000EE0FFF1FE55BFC4F908191110CC0E812CA
:100710000AC0F082F092490383E080934A0386E5A1
:1007200092E00E94900981E00E94CE08E82E81E0CC
:100730000E94DA0898012F5F3F4F9CE3929FF001DF
:10074000939FF00D1124EC0FFD1FEE0FFF1FE55BD3
:10075000FC4F908191110DC0E8120BC081E08083A5
:100760001092490382E080934A038DE592E00E9453
:10077000900982E00E94CE08E82E82E00E94DA080A
:100780009801215031099CE3929FF001939FF00D55
:100790001124EC0FFD1FEE0FFF1FE55BFC4F908156
:1007A00091110DC0E8120BC081E0808392E090931C
:1007B000490380934A0381E692E00E94900980E019
:1007C0000E94CE08E82E80E00E94DA0821979CE380
:1007D000909FB001919F700D1124C60FD71FCC0FB1
:1007E000DD1FC55BDC4F9881911109C0E81207C07D
:1007F00081E0888383E0CACE10926F1FF12C8F2D89
:10080000DF91CF911F910F91FF90EF9008952CE30E
:10081000AC01249FC001259F900D1124FC01E60F1F
:10082000F71FEE0FFF1FE55BFC4F81E0808308950B
:100830008F929F92AF92BF92CF92DF92EF92FF92F0
:100840000F931F93CF93DF93EB018901841B950BCB
:10085000BC0180E090E00E94670B6B017C01BE014F
:10086000601B710B80E090E00E94670B4B015C0104
:10087000A7019601C701B6010E94F50B6B017C012F
:10088000A5019401C501B4010E94F50B9B01AC01C7
:10089000C701B6010E94CC0A0E94680C0E94380B66
:1008A000CB01DF91CF911F910F91FF90EF90DF90DF
:1008B000CF90BF90AF909F908F9008954F925F928E
:1008C0006F927F928F929F92AF92BF92CF92DF9260
:1008D000EF92FF920F931F93CF93DF932C013B0175
:1008E0008BE4C82E83E0D82E9CE3A92EB12C00E027
:1008F00010E07601C0E0D0E0F7018081813019F589
:100900008181811120C09E01A801B301C2010E9412
:1009100018044C010E94E8098AE792E00E949009BD
:10092000C5010E94E8098EE892E00E9490098A14AD
:100930009B0448F410933F0300933E03D09341037C
:10094000C093400354012196F2E0EF0EF11CCC332A
:10095000D10591F60F5F1F4F88E7C80ED11C0C33ED
:10096000110539F680913E0390913F030E94E809FA
:100970008EE393E0DF91CF911F910F91FF90EF9065
:10098000DF90CF90BF90AF909F908F907F906F90AF
:100990005F904F9008958BE493E0FC012CE330E0EE
:1009A0001082118221503109329621153105C1F78B
:1009B00088589F4F2FE18B36920779F708958F92D1
:1009C0009F92AF92BF92CF92DF92EF92FF920F93DE
:1009D0001F93CF93DF93EC018B017A01690182E9C8
:1009E00092E00E9490099801AE01B601C7010E94F1
:1009F0001804892B09F01AC390906F1F81E0981298
:100A00000CC38EE992E00E9490098091721F8111BF
:100A1000C2C08DE492E00E94900983E00E94CE085B
:100A2000B82E83E00E94DA08AE01415051099CE3E0
:100A3000949FF001959FF00D1124E00FF11FEE0F30
:100A4000FF1FE55BFC4F9081911118C0B81216C0D2
:100A50009801B601C7010E9418045C0188EEA8162F
:100A600083E0B80658F482E08093490383E08093E2
:100A70004A0386E592E00E94900904C057EEA52E35
:100A800053E0B52E81E00E94CE08982E81E00E94AE
:100A9000DA0898012F5F3F4F9CE39C9FF0019D9FD8
:100AA000F00D1124E20FF31FEE0FFF1FE55BFC4F6B
:100AB0009081911116C0981214C0AE01B601C70101
:100AC0000E9418044C018A159B0558F481E080931C
:100AD000490382E080934A038DE592E00E949009E9
:100AE000540182E00E94CE08982E82E00E94DA082B
:100AF0009801215031099CE39C9FF0019D9FF00DCE
:100B00001124E20FF31FEE0FFF1FE55BFC4F9081F6
:100B1000911116C0981214C0AE01B601C7010E940F
:100B200018044C018A159B0558F483E0809349030F
:100B300081E080934A0381E692E00E94900954018B
:100B400080E00E94CE08982E80E00E94DA08AE0174
:100B50004F5F5F4F9CE3949FF001959FF00D112430
:100B6000E00FF11FEE0FFF1FE55BFC4F908191112D
:100B700054C2981252C29801B601C7010E941804CB
:100B80008A159B0508F049C21092490310924A0346
:100B900085E692E040C28091731F8111BAC08CE655
:100BA00092E00E94900983E00E94CE08B82E83E074
:100BB0000E94DA089801215031099CE39C9FF001C2
:100BC0009D9FF00D1124E20FF31FEE0FFF1FE55B59
:100BD000FC4F9081911117C0B81215C0AE01B6013B
:100BE000C7010E9418045C0187EEA81683E0B806CE
:100BF00050F483E08093490380934A0386E592E0B2
:100C00000E94900904C0E7EEAE2EE3E0BE2E81E024
:100C10000E94CE08982E81E00E94DA08AE01415071
:100C200051099CE3949FF001959FF00D1124E00F72
:100C3000F11FEE0FFF1FE55BFC4F9081911115C076
:100C4000981213C09801B601C7010E9418044C0104
:100C50008A159B0550F482E08093490380934A03F0
:100C60008DE592E00E949009540182E00E94CE0836
:100C7000982E82E00E94DA08AE014F5F5F4F9CE33E
:100C8000949FF001959FF00D1124E00FF11FEE0FDE
:100C9000FF1FE55BFC4F9081911115C0981213C0A6
:100CA0009801B601C7010E9418044C018A159B05E2
:100CB00050F41092490381E080934A0381E692E068
:100CC0000E949009540180E00E94CE08982E80E096
:100CD0000E94DA0898012F5F3F4F9CE39C9FF00130
:100CE0009D9FF00D1124E20FF31FEE0FFF1FE55B38
:100CF000FC4F9081911191C198128FC1AE01B60144
:100D0000C7010E9418048A159B0508F086C181E07E
:100D10007CC18091741F8111BBC08CE792E00E945E
:100D2000900983E00E94CE08B82E83E00E94DA0882
:100D3000AE014F5F5F4F9CE3949FF001959FF00DD4
:100D40001124E00FF11FEE0FFF1FE55BFC4F9081B8
:100D5000911117C0B81215C09801B601C7010E94C1
:100D600018045C0187EEA81683E0B80650F41092D0
:100D7000490383E080934A0386E592E00E9490094C
:100D800004C0B7EEAB2EB3E0BB2E81E00E94CE08CC
:100D9000982E81E00E94DA089801215031099CE3E5
:100DA0009C9FF0019D9FF00D1124E20FF31FEE0FA9
:100DB000FF1FE55BFC4F9081911116C0981214C083
:100DC000AE01B601C7010E9418044C018A159B05AB
:100DD00058F483E08093490382E080934A038DE5D1
:100DE00092E00E949009540182E00E94CE08982E61
:100DF00082E00E94DA0898012F5F3F4F9CE39C9F9E
:100E0000F0019D9FF00D1124E20FF31FEE0FFF1F65
:100E1000E55BFC4F9081911115C0981213C0AE0193
:100E2000B601C7010E9418044C018A159B0550F4B5
:100E300081E08093490380934A0381E692E00E9417
:100E40009009540180E00E94CE08982E80E00E9414
:100E5000DA08AE01415051099CE3949FF001959F3F
:100E6000F00D1124E00FF11FEE0FFF1FE55BFC4FAB
:100E700090819111D2C09812D0C09801B601C701DB
:100E80000E9418048A159B0508F0C7C082E0BDC007
:100E90008091751F8111C3C085E892E00E9490097E
:100EA00083E00E94CE08B82E83E00E94DA08980101
:100EB0002F5F3F4F9CE39C9FF0019D9FF00D1124FD
:100EC000E20FF31FEE0FFF1FE55BFC4F90819111C6
:100ED00017C0B81215C0AE01B601C7010E941804B0
:100EE0005C0187EEA81683E0B80650F4909249039F
:100EF00083E080934A0386E592E00E94900904C053
:100F000047EEA42E43E0B42E81E00E94CE08982E36
:100F100081E00E94DA08AE014F5F5F4F9CE3949F2F
:100F2000F001959FF00D1124E00FF11FEE0FFF1F50
:100F3000E55BFC4F9081911115C0981213C0980188
:100F4000B601C7010E9418044C018A159B0550F494
:100F50001092490382E080934A038DE592E00E945B
:100F60009009540182E00E94CE08982E82E00E94EF
:100F7000DA08AE01415051099CE3949FF001959F1E
:100F8000F00D1124E00FF11FEE0FFF1FE55BFC4F8A
:100F90009081911116C0981214C09801B601C70132
:100FA0000E9418044C018A159B0558F482E0809336
:100FB000490381E080934A0381E692E00E94900910
:100FC000540180E00E94CE08982E80E00E94DA084A
:100FD0009801215031099CE39C9FF0019D9FF00DE9
:100FE0001124E20FF31FEE0FFF1FE55BFC4F908112
:100FF000911113C0981211C0AE01B601C7010E9431
:1010000018048A159B0548F483E0809349031092E5
:101010004A0385E792E00E94900980E008C084E0DE
:101020008093490383E080934A03F7CF81E0DF9107
:10103000CF911F910F91FF90EF90DF90CF90BF90D5
:10104000AF909F908F900895EF92FF920F931F9310
:10105000CF93DF938C017B018EEA92E00E9490098E
:10106000B701C8010E945E04EC018DEB92E00E9482
:101070009009888199810E94E8098AE792E00E949C
:1010800090098A819B810E94E80988E392E00E948E
:101090009009488159812A813B814115510519F4F4
:1010A0002115310549F0B701C8010E94DF0491E024
:1010B000811103C090E001C092E0892FDF91CF91B0
:1010C0001F910F91FF90EF9008952EE130E04EE1D7
:1010D00050E00E94DF0491E0811101C090E0892F6F
:1010E00008952FEF89E79FE3215080409040E1F77A
:1010F00000C0000089EC92E00E94900981E080939A
:101100006F1F089588ED92E00E94900980B180B928
:10111000029A6AEA88E00E942D0160E080E10E9464
:101120002D010C94710886EE92E00E94900980B126
:1011300080B9009A6AEA80E10E942D0160E088E0AF
:101140000E942D010C94710884EF92E00E94900996
:1011500080B180B980B1856080B962E888E00E9482
:101160002D0166E980E10E942D010C9471088FEF3A
:1011700092E00E94900980B180B980B18A6080B904
:1011800062E888E00E942D0166E980E10E942D015D
:101190000C94710880B180B180B9089546B121E006
:1011A00030E0B90102C0660F771F8A95E2F7CB01E4
:1011B0008423089591E001C0990F8A95EAF7892F59
:1011C000089580916F1F81117BC08BE093E00E9496
:1011D00090098091490381110FC01092721F81E024
:1011E0008093731F8093741F8093751F80914203B7
:1011F00090914303019620C0813071F48093721F57
:101200001092731F8093741F8093751F8091440305
:1012100090914503019625C0823099F481E0809336
:10122000721F8093731F1092741F8093751F80919B
:1012300042039091430301979093430380934203A9
:101240001EC0833099F481E08093721F8093731FD6
:101250008093741F1092751F8091440390914503F1
:101260000197909345038093440309C081E08093E4
:10127000721F8093731F8093741F8093751F8091DA
:101280004A03811102C00E94A40880914A0382305F
:1012900011F40E94930880914A03813011F40E9456
:1012A000820880914A03833011F40E94B70880912C
:1012B0004A03843011F40E94CA0884E080934A03F0
:1012C00081E0089581B111B881B18F6081B908952D
:1012D00087B187B187B988B18F6088B908953E9A80
:1012E00008951092C50087E68093C400E0ECF0E01A
:1012F00080818D7F808388E18093C10086E0809328
:10130000C20008959091C00095FFFCCF8093C60065
:1013100008958091C00087FFFCCF8091C60008959A
:101320000F931F93CF938C01C0E0F801EC0FF11DD8
:101330008081882321F00E948209CF5FF6CFCF9170
:101340001F910F910895CF92DF92EF92FF920F932A
:101350001F93CF93DF936C01F12C062F10E0015007
:101360001109CF2DD0E0C017D10744F40E9489099C
:10137000E82E0E9482098DE0E8120CC0CC0DDD1D24
:101380001882DF91CF911F910F91FF90EF90DF9026
:10139000CF900895CC0DDD1DE882F394E2CFCF937A
:1013A000C82F64E60E94AB0A805D0E9482092AE091
:1013B0008C2F622F0E94AB0AC92F0E94AB0A80E3D8
:1013C000890F0E94820980E38C0FCF910C948209CF
:1013D0000F931F93CF93DF938C0160E177E20E941C
:1013E000B70A80E3860F0E948209C80168EE73E0A5
:1013F0000E94B70ACB01CAE0D0E0BE010E94B70A42
:10140000805D0E948209C80164E670E00E94B70A0C
:10141000CB01BE010E94B70A805D0E948209C8010B
:10142000BE010E94B70A182FCB01BE010E94B70A65
:10143000805D0E94820980E3810FDF91CF911F912F
:101440000F910C9482091F93CF93DF931F92CDB716
:10145000DEB7898317E0898190E0012E02C095955F
:1014600087950A94E2F780FF02C081E301C080E320
:101470000E948209115078F70F90DF91CF911F9150
:1014800008958A3010F4805D0895895C0895CF93A3
:10149000C82F82958F700E94410A0E9482098C2F6A
:1014A0008F700E94410ACF910C9482090F931F9371
:1014B000CF93DF93D0E3C0E310E30E948909082FA4
:1014C0000E9482090D3021F01C2FCD2FD02FF5CF97
:1014D0001053D05384E6189FD00D1124CC0FC05662
:1014E0008C2F880F880F8C0F8D0FDF91CF911F915C
:1014F0000F9108951092701F10924603E2E4F3E0FA
:101500008EE190E09183808393838283E9E4F3E02A
:1015100010821182E2E7FFE1108281E08183828301
:10152000838380936F1F08950E947A0A0E94CB04E0
:101530000E9462090E9468090E9455010E9475017B
:101540000E94710989E193E00E9490098091701FC7
:101550000E949500FBCF991B79E004C0991F961754
:1015600008F0961B881F7A95C9F780950895AA1BE5
:10157000BB1B51E107C0AA1FBB1FA617B70710F07E
:10158000A61BB70B881F991F5A95A9F780959095B0
:10159000BC01CD0108955058BB27AA270E94E30A39
:1015A0000C94BB0B0E94AD0B38F00E94B40B20F0E2
:1015B00039F49F3F19F426F40C94AA0B0EF4E0952D
:1015C000E7FB0C94A40BE92F0E94CC0B58F3BA173D
:1015D000620773078407950720F079F4A6F50C9449
:1015E000EE0B0EF4E0950B2EBA2FA02D0B01B901D6
:1015F00090010C01CA01A0011124FF27591B99F089
:10160000593F50F4503E68F11A16F040A22F232F94
:10161000342F4427585FF3CF469537952795A795E4
:10162000F0405395C9F77EF41F16BA0B620B730B8B
:10163000840BBAF09150A1F0FF0FBB1F661F771FFC
:10164000881FC2F70EC0BA0F621F731F841F48F4B1
:10165000879577956795B795F7959E3F08F0B0CF3A
:101660009395880F08F09927EE0F97958795089521
:101670000E94D40B88F09F5798F0B92F9927B75143
:10168000B0F0E1F0660F771F881F991F1AF0BA9526
:10169000C9F714C0B13091F00E94EE0BB1E008958B
:1016A0000C94EE0B672F782F8827B85F39F0B93F7D
:1016B000CCF3869577956795B395D9F73EF49095D9
:1016C0008095709561957F4F8F4F9F4F0895E89457
:1016D00009C097FB3EF490958095709561957F4F7A
:1016E0008F4F9F4F9923A9F0F92F96E9BB27939528
:1016F000F695879577956795B795F111F8CFFAF438
:10170000BB0F11F460FF1BC06F5F7F4F8F4F9F4F68
:1017100016C0882311F096E911C0772321F09EE8C6
:10172000872F762F05C0662371F096E8862F70E02C
:1017300060E02AF09A95660F771F881FDAF7880F06
:101740009695879597F9089597F99F6780E870E0D7
:1017500060E008959FEF80EC089500240A94161627
:10176000170618060906089500240A94121613068F
:10177000140605060895092E0394000C11F488231D
:1017800052F0BB0F40F4BF2B11F460FF04C06F5F39
:101790007F4F8F4F9F4F089557FD9058440F551F0F
:1017A00059F05F3F71F04795880F97FB991F61F0E3
:1017B0009F3F79F087950895121613061406551F5A
:1017C000F2CF4695F1DF08C0161617061806991FC6
:1017D000F1CF86957105610508940895E894BB27BB
:1017E00066277727CB0197F908950E94080C0C947F
:1017F000BB0B0E94AD0B38F00E94B40B20F0952378
:1018000011F00C94A40B0C94AA0B11240C94EF0B64
:101810000E94CC0B70F3959FC1F3950F50E0551FBC
:10182000629FF001729FBB27F00DB11D639FAA2735
:10183000F00DB11DAA1F649F6627B00DA11D661F84
:10184000829F2227B00DA11D621F739FB00DA11DA5
:10185000621F839FA00D611D221F749F3327A00D5F
:10186000611D231F849F600D211D822F762F6A2FFB
:1018700011249F5750409AF0F1F088234AF0EE0F60
:10188000FF1FBB1F661F771F881F91505040A9F78D
:101890009E3F510580F00C94A40B0C94EF0B5F3F1E
:1018A000E4F3983ED4F3869577956795B795F795C9
:1018B000E7959F5FC1F7FE2B880F911D9695879541
:1018C00097F9089519F416F40C94AA0B0C94A80C2B
:1018D0000E94D40BB8F39923C9F3B6F39F57550B65
:1018E00087FF0E94B60C0024A0E640EA90018058D1
:1018F0005695979528F4805C660F771F881F20F017
:1019000026173707480730F4621B730B840B202916
:1019100031294A2BA69517940794202531254A276B
:1019200058F7660F771F881F20F0261737074807DC
:1019300030F4620B730B840B200D311D411DA095FB
:1019400081F7B901842F9158880F9695879508954E
:101950009F3F31F0915020F4879577956795B79523
:10196000880F911D9695879597F90895915050404D
:0E197000660F771F881FD2F70895F894FFCFF7
:10197E00696E6974200D200A004C6F6F6B61726F77
:10198E00756E64200D200A0053746570200D200AB8
:10199E000046414C53450054525545004E4549545E
:1019AE00484552003441200D0A003442200D0A00F1
:1019BE00436865636B4F4253200D200A00486561F2
:1019CE006420707820002042200D200A00204C2038
:1019DE0000205220002046200D200A004865616438
:1019EE0020707920002046200D0A20004865616491
:1019FE00206D78200048656164206D792000207C80
:101A0E002000546F207468617420426F7800546F08
:101A1E00205468617420426F78200D200A00204601
:101A2E00696E6454686544657374200A0020706F93
:101A3E007344657374203A200053746F7073204D95
:101A4E006F746F72200D0A005475726E20526967A2
:101A5E006874200D0A005475726E204C65667420F1
:101A6E000D200A00466F7277617264200D0A0042E3
:101A7E0061636B77617264200D0A00576865726549
:101A8E00596F75476F203A20004927616D205468C1
:101A9E006520427261766520416476656E7475725A
:0E1AAE006520562E30312E3030200D200A00DB
:00000001FF
