:100000000C9472000C9493000C9493000C94930045
:100010000C9493000C9493000C9493000C94930014
:100020000C9493000C9493000C9493000C94930004
:100030000C9493000C9493000C9493000C949300F4
:100040000C9493000C9493000C9493000C949300E4
:100050000C9493000C9493000C9493000C949300D4
:100060000C9493000C9493000C9493000C949300C4
:100070000C9493000C9493000C9493000C949300B4
:100080000C9493000C9493000C9493000C949300A4
:100090000C9493000C9493000C9493000C94930094
:1000A0000C9493000C9493000C9493000C94930084
:1000B0000C9493000C9493000C9493000C94930074
:1000C0000C9493000C9493000C9493000C94930064
:1000D0000C9493000C9493000C9493000C94930054
:1000E0000C94930011241FBECFEFD1E2DEBFCDBF31
:1000F00000E00CBF13E0A0E0B2E0EEE9FBE100E0BD
:100100000BBF02C007900D92AE33B107D9F72FE1B4
:10011000AEE3B3E001C01D92A038B207E1F70E9440
:10012000A40B0C94CD0D0C940000CF93C82F8230FB
:1001300009F442C028F4882381F0813021F18BC07A
:10014000843009F474C008F449C0853009F083C0D4
:100150000E94CA09C093741F7EC0609144037091CD
:10016000450380914203909143030E9485010E94C0
:10017000E10981E08093741F80E092E00E94900A80
:100180001092460368C060914403709145038091CA
:100190004203909143030E948501813041F482E043
:1001A0008093741F89E092E00E94900A03C083E06C
:1001B0008093741F81E04DC00E94E10988E192E0C4
:1001C0000E94900A80914603813021F0833011F023
:1001D000843011F48093741F82E03BC0609144032B
:1001E0007091450380914203909143030E942D0931
:1001F0008093771F853031F481E292E00E94900A6B
:1002000082E007C0873041F487E292E00E94900AC2
:1002100081E08093741F09C0833039F484E08093B7
:10022000741F8CE292E00E94900A83E012C06091F9
:1002300044037091450380914203909143030E94CF
:100240006E09811102C082E001C085E08093741FB5
:1002500084E080934603CF9108959091010190919D
:100260000101982B90930101803161F0813199F067
:100270008830D1F470E07093A9006093A80084E303
:1002800092E007C070E07093AB006093AA008AE32D
:1002900092E00C94900A70E07093A9006093A8001B
:1002A0007093AB006093AA000895E0EAF0E08081CB
:1002B000836A8083E1EAF0E080818360808308952F
:1002C00090917C00907F8F70892B80937C0080912F
:1002D0007A00806480937A0080917A0086FDFCCF5A
:1002E00080917800909179000895ECE7F0E08081AA
:1002F00080648083EAE7F0E08081846880830895E9
:1003000096958795969587950895EF92FF920F930E
:100310001F93CF93DF93F090711F21E0F21275C30A
:10032000EB018C011092711F80E492E00E94900A10
:100330008091781F8111DBC08DE492E00E94900AC9
:1003400083E00E94CE09E82E83E00E94DA0998013A
:10035000215031099CE3929FF001939FF00D1124ED
:10036000EC0FFD1FEE0FFF1FE55BFC4F908191111D
:100370001DC0E8121BC080916B1F90916C1F0196ED
:1003800090936C1F80936B1F883E934029F4F082FA
:1003900010926C1F10926B1F82E08093490383E0E0
:1003A00080934A0386E592E00E94900A81E00E94D1
:1003B000CE09E82E81E00E94DA099CE3909FF001CB
:1003C000919FF00D11249E012F5F3F4FE20FF31F0D
:1003D000EE0FFF1FE55BFC4F908191111EC0E812EC
:1003E0001CC08091721F9091731F01969093731F90
:1003F0008093721F883E934031F481E08083109295
:10040000731F1092721F81E08093490382E08093F2
:100410004A038DE592E00E94900A82E00E94CE0994
:10042000E82E82E00E94DA099CE3909FF001919F00
:10043000F00D11249E0121503109E20FF31FEE0F40
:10044000FF1FE55BFC4F908191111EC0E8121CC09C
:100450008091751F9091761F01969093761F8093DF
:10046000751F883E934031F481E080831092761F9F
:100470001092751F83E08093490381E080934A03C3
:1004800081E692E00E94900A80E00E94CE09E82E68
:1004900080E00E94DA090F5F1F4F9CE3909FB0013C
:1004A000919F700D1124C60FD71FCC0FDD1FC55BA8
:1004B000DC4F98819111ACC2E812AAC280917E1FD4
:1004C00090917F1F019690937F1F80937E1F883E9F
:1004D000934031F481E0888310927F1F10927E1F39
:1004E0001092490310924A0385E692E0DBC08091A6
:1004F000791F8111DAC08CE692E00E94900A83E0B5
:100500000E94CE09E82E83E00E94DA099CE3909FC6
:10051000F001919FF00D11249E0121503109E20F4D
:10052000F31FEE0FFF1FE55BFC4F908191111CC084
:10053000E8121AC080916B1F90916C1F01969093E6
:100540006C1F80936B1F883E934029F4F0821092B9
:100550006C1F10926B1F83E08093490380934A03C2
:1005600086E592E00E94900A81E00E94CE09E82E82
:1005700081E00E94DA099801215031099CE3929FA1
:10058000F001939FF00D1124EC0FFD1FEE0FFF1FE4
:10059000E55BFC4F908191111DC0E8121BC080915A
:1005A000721F9091731F01969093731F8093721F17
:1005B000883E934031F481E080831092731F109243
:1005C000721F82E08093490380934A038DE592E095
:1005D0000E94900A82E00E94CE09E82E82E00E94EA
:1005E000DA0998012F5F3F4F9CE3929FF001939FA0
:1005F000F00D1124EC0FFD1FEE0FFF1FE55BFC4F0C
:10060000908191111DC0E8121BC08091751F9091BF
:10061000761F01969093761F8093751F883E9340B6
:1006200031F481E080831092761F1092751F109232
:10063000490381E080934A0381E692E00E94900A98
:1006400080E00E94CE09E82E80E00E94DA0921961F
:100650009CE3909FB001919F700D1124C60FD71F8E
:10066000CC0FDD1FC55BDC4F98819111D1C1E81221
:10067000CFC180917E1F90917F1F019690937F1F25
:1006800080937E1F883E934031F481E088831092EE
:100690007F1F10927E1F81E08093490310924A03CE
:1006A00085E792E00E94900AB3C180917A1F811180
:1006B000D4C08CE792E00E94900A83E00E94CE09A9
:1006C000E82E83E00E94DA0998012F5F3F4F9CE3F8
:1006D000929FF001939FF00D1124EC0FFD1FEE0F80
:1006E000FF1FE55BFC4F908191111CC0E8121AC0FE
:1006F00080916B1F90916C1F019690936C1F80935B
:100700006B1F883E934029F4F08210926C1F109268
:100710006B1F1092490383E080934A0386E592E0C1
:100720000E94900A81E00E94CE09E82E81E00E949A
:10073000DA099CE3909FF001919FF00D11249E0136
:1007400021503109E20FF31FEE0FFF1FE55BFC4F55
:10075000908191111EC0E8121CC08091721F90916F
:10076000731F01969093731F8093721F883E93406E
:1007700031F481E080831092731F1092721F83E026
:100780008093490382E080934A038DE592E00E94C2
:10079000900A82E00E94CE09E82E82E00E94DA09E7
:1007A0009CE3909FF001919FF00D11249E012F5F1B
:1007B0003F4FE20FF31FEE0FFF1FE55BFC4F9081F1
:1007C00091111DC0E8121BC08091751F9091761F7A
:1007D00001969093761F8093751F883E934031F465
:1007E00081E080831092761F1092751F81E08093C4
:1007F000490380934A0381E692E00E94900A80E0D8
:100800000E94CE09E82E80E00E94DA090150110909
:100810009CE3909FB001919F700D1124C60FD71FCC
:10082000CC0FDD1FC55BDC4F98819111F1C0E81240
:10083000EFC080917E1F90917F1F019690937F1F44
:1008400080937E1F883E934031F481E0888310922C
:100850007F1F10927E1F82E01FCF80917B1F81112E
:10086000D4C085E892E00E94900A83E00E94CE09FD
:10087000E82E83E00E94DA099CE3909FF001919FAB
:10088000F00D11249E012F5F3F4FE20FF31FEE0F7B
:10089000FF1FE55BFC4F908191111DC0E8121BC04A
:1008A00080916B1F90916C1F019690936C1F8093A9
:1008B0006B1F883E934029F4F08210926C1F1092B7
:1008C0006B1F81E08093490383E080934A0386E5B0
:1008D00092E00E94900A81E00E94CE09E82E81E019
:1008E0000E94DA0998012F5F3F4F9CE3929FF0012D
:1008F000939FF00D1124EC0FFD1FEE0FFF1FE55B22
:10090000FC4F908191111DC0E8121BC08091721F95
:100910009091731F01969093731F8093721F883E6E
:10092000934031F481E080831092731F1092721F04
:100930001092490382E080934A038DE592E00E9481
:10094000900A82E00E94CE09E82E82E00E94DA0935
:100950009801215031099CE3929FF001939FF00D83
:100960001124EC0FFD1FEE0FFF1FE55BFC4F908184
:1009700091111EC0E8121CC08091751F9091761FC6
:1009800001969093761F8093751F883E934031F4B3
:1009900081E080831092761F1092751F82E0809311
:1009A000490381E080934A0381E692E00E94900A25
:1009B00080E00E94CE09E82E80E00E94DA092197AB
:1009C0009CE3909FB001919F700D1124C60FD71F1B
:1009D000CC0FDD1FC55BDC4F9881911119C0E81267
:1009E00017C080917E1F90917F1F019690937F1F6B
:1009F00080937E1F883E934031F481E0888310927B
:100A00007F1F10927E1F83E047CE1092711FF12C42
:100A10008F2DDF91CF911F910F91FF90EF9008954F
:100A20002CE3AC01249FC001259F900D1124FC01F3
:100A3000E60FF71FEE0FFF1FE55BFC4F81E08083A1
:100A400008958F929F92AF92BF92CF92DF92EF92D2
:100A5000FF920F931F93CF93DF93EB018901841BC8
:100A6000950BBC0180E090E00E94770C6B017C014B
:100A7000BE01601B710B80E090E00E94770C4B017F
:100A80005C01A7019601C701B6010E94050D6B012B
:100A90007C01A5019401C501B4010E94050D9B01D3
:100AA000AC01C701B6010E94DC0B0E94780D0E94C8
:100AB000480CCB01DF91CF911F910F91FF90EF90E8
:100AC000DF90CF90BF90AF909F908F9008954F92FE
:100AD0005F926F927F928F929F92AF92BF92CF92CE
:100AE000DF92EF92FF920F931F93CF93DF932C012E
:100AF0003B018BE4C82E83E0D82E9CE3A92EB12CB9
:100B000000E010E07601C0E0D0E0F70180818130A4
:100B100019F58181811120C09E01A801B301C20194
:100B20000E9421054C010E94E80A8AE792E00E9497
:100B3000900AC5010E94E80A8EE892E00E94900A9D
:100B40008A149B0448F410933F0300933E03D09310
:100B50004103C093400354012196F2E0EF0EF11CD3
:100B6000CC33D10591F60F5F1F4F88E7C80ED11C1B
:100B70000C33110539F680913E0390913F030E949A
:100B8000E80A8EE393E0DF91CF911F910F91FF90E0
:100B9000EF90DF90CF90BF90AF909F908F907F901D
:100BA0006F905F904F9008958BE493E0FC012CE3ED
:100BB00030E0108211822150310932962115310521
:100BC000C1F788589F4F2FE18B36920779F7089528
:100BD0008F929F92AF92BF92CF92DF92EF92FF924D
:100BE0000F931F93CF93DF93EC018B017A0169017F
:100BF00082E992E00E94900A9801AE01B601C70115
:100C00000E942105892B09F01AC39090711F81E081
:100C100098120CC38EE992E00E94900A8091781F8E
:100C20008111C2C08DE492E00E94900A83E00E948C
:100C3000CE09B82E83E00E94DA09AE014150510975
:100C40009CE3949FF001959FF00D1124E00FF11F9C
:100C5000EE0FFF1FE55BFC4F9081911118C0B81299
:100C600016C09801B601C7010E9421055C0188EEFB
:100C7000A81683E0B80658F482E08093490383E025
:100C800080934A0386E592E00E94900A04C057EEE2
:100C9000A52E53E0B52E81E00E94CE09982E81E06A
:100CA0000E94DA0998012F5F3F4F9CE39C9FF0015F
:100CB0009D9FF00D1124E20FF31FEE0FFF1FE55B68
:100CC000FC4F9081911116C0981214C0AE01B6016C
:100CD000C7010E9421054C018A159B0558F481E04B
:100CE0008093490382E080934A038DE592E00E945D
:100CF000900A540182E00E94CE09982E82E00E9460
:100D0000DA099801215031099CE39C9FF0019D9FD5
:100D1000F00D1124E20FF31FEE0FFF1FE55BFC4FF8
:100D20009081911116C0981214C0AE01B601C7018E
:100D30000E9421054C018A159B0558F483E080939D
:100D4000490381E080934A0381E692E00E94900A81
:100D5000540180E00E94CE09982E80E00E94DA09BA
:100D6000AE014F5F5F4F9CE3949FF001959FF00DA4
:100D70001124E00FF11FEE0FFF1FE55BFC4F908188
:100D8000911154C2981252C29801B601C7010E9433
:100D900021058A159B0508F049C21092490310925B
:100DA0004A0385E692E040C28091791F8111BAC062
:100DB0008CE692E00E94900A83E00E94CE09B82E51
:100DC00083E00E94DA099801215031099CE39C9F3D
:100DD000F0019D9FF00D1124E20FF31FEE0FFF1F96
:100DE000E55BFC4F9081911117C0B81215C0AE01A0
:100DF000B601C7010E9421055C0187EEA81683E0B9
:100E0000B80650F483E08093490380934A0386E553
:100E100092E00E94900A04C0E7EEAE2EE3E0BE2E00
:100E200081E00E94CE09982E81E00E94DA09AE018D
:100E3000415051099CE3949FF001959FF00D1124BE
:100E4000E00FF11FEE0FFF1FE55BFC4F908191114A
:100E500015C0981213C09801B601C7010E94210560
:100E60004C018A159B0550F482E0809349038093DE
:100E70004A038DE592E00E94900A540182E00E94AC
:100E8000CE09982E82E00E94DA09AE014F5F5F4FD3
:100E90009CE3949FF001959FF00D1124E00FF11F4A
:100EA000EE0FFF1FE55BFC4F9081911115C098126A
:100EB00013C09801B601C7010E9421054C018A1593
:100EC0009B0550F41092490381E080934A0381E628
:100ED00092E00E94900A540180E00E94CE09982E70
:100EE00080E00E94DA0998012F5F3F4F9CE39C9FAE
:100EF000F0019D9FF00D1124E20FF31FEE0FFF1F75
:100F0000E55BFC4F9081911191C198128FC1AE01A8
:100F1000B601C7010E9421058A159B0508F086C10C
:100F200081E07CC180917A1F8111BBC08CE792E087
:100F30000E94900A83E00E94CE09B82E83E00E94AE
:100F4000DA09AE014F5F5F4F9CE3949FF001959FDC
:100F5000F00D1124E00FF11FEE0FFF1FE55BFC4FBA
:100F60009081911117C0B81215C09801B601C70140
:100F70000E9421055C0187EEA81683E0B80650F4B4
:100F80001092490383E080934A0386E592E00E9431
:100F9000900A04C0B7EEAB2EB3E0BB2E81E00E94F6
:100FA000CE09982E81E00E94DA099801215031097A
:100FB0009CE39C9FF0019D9FF00D1124E20FF31F15
:100FC000EE0FFF1FE55BFC4F9081911116C0981248
:100FD00014C0AE01B601C7010E9421054C018A155B
:100FE0009B0558F483E08093490382E080934A0391
:100FF0008DE592E00E94900A540182E00E94CE09A1
:10100000982E82E00E94DA0998012F5F3F4F9CE3FF
:101010009C9FF0019D9FF00D1124E20FF31FEE0F36
:10102000FF1FE55BFC4F9081911115C0981213C012
:10103000AE01B601C7010E9421054C018A159B052E
:1010400050F481E08093490380934A0381E692E063
:101050000E94900A540180E00E94CE09982E80E000
:101060000E94DA09AE01415051099CE3949FF001BE
:10107000959FF00D1124E00FF11FEE0FFF1FE55BB0
:10108000FC4F90819111D2C09812D0C09801B60146
:10109000C7010E9421058A159B0508F0C7C082E0A0
:1010A000BDC080917B1F8111C3C085E892E00E9482
:1010B000900A83E00E94CE09B82E83E00E94DA09EC
:1010C00098012F5F3F4F9CE39C9FF0019D9FF00D87
:1010D0001124E20FF31FEE0FFF1FE55BFC4F908121
:1010E000911117C0B81215C0AE01B601C7010E9418
:1010F00021055C0187EEA81683E0B80650F49092B3
:10110000490383E080934A0386E592E00E94900AB7
:1011100004C047EEA42E43E0B42E81E00E94CE0925
:10112000982E81E00E94DA09AE014F5F5F4F9CE389
:10113000949FF001959FF00D1124E00FF11FEE0F29
:10114000FF1FE55BFC4F9081911115C0981213C0F1
:101150009801B601C7010E9421054C018A159B0523
:1011600050F41092490382E080934A038DE592E0A7
:101170000E94900A540182E00E94CE09982E82E0DB
:101180000E94DA09AE01415051099CE3949FF0019D
:10119000959FF00D1124E00FF11FEE0FFF1FE55B8F
:1011A000FC4F9081911116C0981214C09801B6019D
:1011B000C7010E9421054C018A159B0558F482E065
:1011C0008093490381E080934A0381E692E00E9484
:1011D000900A540180E00E94CE09982E80E00E947F
:1011E000DA099801215031099CE39C9FF0019D9FF1
:1011F000F00D1124E20FF31FEE0FFF1FE55BFC4F14
:101200009081911113C0981211C0AE01B601C701AF
:101210000E9421058A159B0548F483E080934903C9
:1012200010924A0385E792E00E94900A80E008C08D
:1012300084E08093490383E080934A03F7CF81E001
:10124000DF91CF911F910F91FF90EF90DF90CF90A2
:10125000BF90AF909F908F900895EF92FF920F9361
:101260001F93CF93DF938C017B018EEA92E00E9463
:10127000900AB701C8010E946705EC018DEB92E06E
:101280000E94900A888199810E94E80A8AE792E088
:101290000E94900A8A819B810E94E80A88E392E07A
:1012A0000E94900A488159812A813B81411551054C
:1012B00019F42115310549F0B701C8010E94E8056C
:1012C00091E0811103C090E001C092E0892FDF918D
:1012D000CF911F910F91FF90EF9008952EE130E094
:1012E0004EE150E00E94E80591E0811101C090E0DC
:1012F000892F089589EC92E00E94900A81E0809302
:10130000711F089588ED92E00E94900A80B180B923
:10131000029A6AEA88E00E942D0160E080E10E9462
:101320002D010C947A0986EE92E00E94900A80B119
:1013300080B9009A6AEA80E10E942D0160E088E0AD
:101340000E942D010C947A0984EF92E00E94900A89
:1013500080B180B980B1856080B962E888E00E9480
:101360002D0166E980E10E942D010C947A098FEF2E
:1013700092E00E94900A80B180B980B18A6080B901
:1013800062E888E00E942D0166E980E10E942D015B
:101390000C947A0980B180B180B9089546B121E0FA
:1013A00030E0B90102C0660F771F8A95E2F7CB01E2
:1013B0008423089591E001C0990F8A95EAF7892F57
:1013C00008958091711F81117BC08BE093E00E9492
:1013D000900A8091490381110FC01092781F81E01B
:1013E0008093791F80937A1F80937B1F80914203A3
:1013F00090914303019620C0813071F48093781F4F
:101400001092791F80937A1F80937B1F80914403F1
:1014100090914503019625C0823099F481E0809334
:10142000781F8093791F10927A1F80937B1F809181
:1014300042039091430301979093430380934203A7
:101440001EC0833099F481E08093781F8093791FC8
:1014500080937A1F10927B1F8091440390914503E3
:101460000197909345038093440309C081E08093E2
:10147000781F8093791F80937A1F80937B1F8091C0
:101480004A03811102C00E94A40980914A0382305C
:1014900011F40E94930980914A03813011F40E9453
:1014A000820980914A03833011F40E94B709809128
:1014B0004A03843011F40E94CA0984E080934A03ED
:1014C00081E0089581B111B881B18F6081B908952B
:1014D00087B187B187B988B18F6088B908953E9A7E
:1014E00008951092C50087E68093C400E0ECF0E018
:1014F00080818D7F808388E18093C10086E0809326
:10150000C20008959091C00095FFFCCF8093C60063
:1015100008958091C00087FFFCCF8091C600089598
:101520000F931F93CF938C01C0E0F801EC0FF11DD6
:101530008081882321F00E94820ACF5FF6CFCF916D
:101540001F910F910895CF92DF92EF92FF920F9328
:101550001F93CF93DF936C01F12C062F10E0015005
:101560001109CF2DD0E0C017D10744F40E94890A99
:10157000E82E0E94820A8DE0E8120CC0CC0DDD1D21
:101580001882DF91CF911F910F91FF90EF90DF9024
:10159000CF900895CC0DDD1DE882F394E2CFCF9378
:1015A000C82F64E60E94BB0B805D0E94820A2AE07D
:1015B0008C2F622F0E94BB0BC92F0E94BB0B80E3B4
:1015C000890F0E94820A80E38C0FCF910C94820ACB
:1015D0000F931F93CF93DF938C0160E177E20E941A
:1015E000C70B80E3860F0E94820AC80168EE73E091
:1015F0000E94C70BCB01CAE0D0E0BE010E94C70B1E
:10160000805D0E94820AC80164E670E00E94C70BF8
:10161000CB01BE010E94C70B805D0E94820AC801F7
:10162000BE010E94C70B182FCB01BE010E94C70B41
:10163000805D0E94820A80E3810FDF91CF911F912C
:101640000F910C94820A1F93CF93DF931F92CDB713
:10165000DEB7898317E0898190E0012E02C095955D
:1016600087950A94E2F780FF02C081E301C080E31E
:101670000E94820A115078F70F90DF91CF911F914D
:1016800008958A3010F4805D0895895C0895CF93A1
:10169000C82F82958F700E94410B0E94820A8C2F66
:1016A0008F700E94410BCF910C94820A0F931F936D
:1016B000CF93DF93D0E3C0E310E30E94890A082FA1
:1016C0000E94820A0D3021F01C2FCD2FD02FF5CF94
:1016D0001053D05384E6189FD00D1124CC0FC05660
:1016E0008C2F880F880F8C0F8D0FDF91CF911F915A
:1016F0000F9108951092741F10924603E2E4F3E0F4
:101700008EE190E09183808393838283E9E4F3E028
:1017100010821182E8E7FFE1108281E081838283F9
:1017200083838093711F10927F1F10927E1F1092EF
:10173000761F1092751F1092731F1092721F1092D5
:101740006C1F10926B1F08950E947A0B0E94D405A3
:101750000E94620A0E94680A0E9455010E94750157
:101760000E94710A89E193E00E94900A8091741F9F
:101770000E949500FBCF991B79E004C0991F961732
:1017800008F0961B881F7A95C9F780950895AA1BC3
:10179000BB1B51E107C0AA1FBB1FA617B70710F05C
:1017A000A61BB70B881F991F5A95A9F7809590958E
:1017B000BC01CD0108955058BB27AA270E94F30B06
:1017C0000C94CB0C0E94BD0C38F00E94C40C20F08D
:1017D00039F49F3F19F426F40C94BA0C0EF4E095FA
:1017E000E7FB0C94B40CE92F0E94DC0C58F3BA17F9
:1017F000620773078407950720F079F4A6F50C9427
:10180000FE0C0EF4E0950B2EBA2FA02D0B01B901A2
:1018100090010C01CA01A0011124FF27591B99F066
:10182000593F50F4503E68F11A16F040A22F232F72
:10183000342F4427585FF3CF469537952795A795C2
:10184000F0405395C9F77EF41F16BA0B620B730B69
:10185000840BBAF09150A1F0FF0FBB1F661F771FDA
:10186000881FC2F70EC0BA0F621F731F841F48F48F
:10187000879577956795B795F7959E3F08F0B0CF18
:101880009395880F08F09927EE0F979587950895FF
:101890000E94E40C88F09F5798F0B92F9927B75110
:1018A000B0F0E1F0660F771F881F991F1AF0BA9504
:1018B000C9F714C0B13091F00E94FE0CB1E0089558
:1018C0000C94FE0C672F782F8827B85F39F0B93F4A
:1018D000CCF3869577956795B395D9F73EF49095B7
:1018E0008095709561957F4F8F4F9F4F0895E89435
:1018F00009C097FB3EF490958095709561957F4F58
:101900008F4F9F4F9923A9F0F92F96E9BB27939505
:10191000F695879577956795B795F111F8CFFAF415
:10192000BB0F11F460FF1BC06F5F7F4F8F4F9F4F46
:1019300016C0882311F096E911C0772321F09EE8A4
:10194000872F762F05C0662371F096E8862F70E00A
:1019500060E02AF09A95660F771F881FDAF7880FE4
:101960009695879597F9089597F99F6780E870E0B5
:1019700060E008959FEF80EC089500240A94161605
:10198000170618060906089500240A94121613066D
:10199000140605060895092E0394000C11F48823FB
:1019A00052F0BB0F40F4BF2B11F460FF04C06F5F17
:1019B0007F4F8F4F9F4F089557FD9058440F551FED
:1019C00059F05F3F71F04795880F97FB991F61F0C1
:1019D0009F3F79F087950895121613061406551F38
:1019E000F2CF4695F1DF08C0161617061806991FA4
:1019F000F1CF86957105610508940895E894BB2799
:101A000066277727CB0197F908950E94180D0C944B
:101A1000CB0C0E94BD0C38F00E94C40C20F0952322
:101A200011F00C94B40C0C94BA0C11240C94FF0C0F
:101A30000E94DC0C70F3959FC1F3950F50E0551F89
:101A4000629FF001729FBB27F00DB11D639FAA2713
:101A5000F00DB11DAA1F649F6627B00DA11D661F62
:101A6000829F2227B00DA11D621F739FB00DA11D83
:101A7000621F839FA00D611D221F749F3327A00D3D
:101A8000611D231F849F600D211D822F762F6A2FD9
:101A900011249F5750409AF0F1F088234AF0EE0F3E
:101AA000FF1FBB1F661F771F881F91505040A9F76B
:101AB0009E3F510580F00C94B40C0C94FF0C5F3FDA
:101AC000E4F3983ED4F3869577956795B795F795A7
:101AD000E7959F5FC1F7FE2B880F911D969587951F
:101AE00097F9089519F416F40C94BA0C0C94B80DE7
:101AF0000E94E40CB8F39923C9F3B6F39F57550B32
:101B000087FF0E94C60D0024A0E640EA900180589D
:101B10005695979528F4805C660F771F881F20F0F4
:101B200026173707480730F4621B730B840B2029F4
:101B300031294A2BA69517940794202531254A2749
:101B400058F7660F771F881F20F0261737074807BA
:101B500030F4620B730B840B200D311D411DA095D9
:101B600081F7B901842F9158880F9695879508952C
:101B70009F3F31F0915020F4879577956795B79501
:101B8000880F911D9695879597F90895915050402B
:0E1B9000660F771F881FD2F70895F894FFCFD5
:101B9E00696E6974200D200A004C6F6F6B61726F55
:101BAE00756E64200D200A0053746570200D200A96
:101BBE000046414C53450054525545004E4549543C
:101BCE00484552003441200D0A003442200D0A00CF
:101BDE00436865636B4F4253200D200A00486561D0
:101BEE006420707820002042200D200A00204C2016
:101BFE0000205220002046200D200A004865616416
:101C0E0020707920002046200D0A2000486561646E
:101C1E00206D78200048656164206D792000207C5D
:101C2E002000546F207468617420426F7800546FE6
:101C3E00205468617420426F78200D200A002046DF
:101C4E00696E6454686544657374200A0020706F71
:101C5E007344657374203A200053746F7073204D73
:101C6E006F746F72200D0A005475726E2052696780
:101C7E006874200D0A005475726E204C65667420CF
:101C8E000D200A00466F7277617264200D0A0042C1
:101C9E0061636B77617264200D0A00576865726527
:101CAE00596F75476F203A20004927616D2054689F
:101CBE006520427261766520416476656E74757238
:0E1CCE006520562E30312E3030200D200A00B9
:00000001FF
