:100000000C9472000C9493000C9493000C94930045
:100010000C9493000C9493000C9493000C94930014
:100020000C9493000C9493000C9493000C94930004
:100030000C9493000C9493000C9493000C949300F4
:100040000C9493000C9493000C9493000C949300E4
:100050000C9493000C9493000C9493000C949300D4
:100060000C9493000C9493000C9493000C949300C4
:100070000C9493000C9493000C9493000C949300B4
:100080000C9493000C9493000C9493000C949300A4
:100090000C9493000C9493000C9493000C94930094
:1000A0000C9493000C9493000C9493000C94930084
:1000B0000C9493000C9493000C9493000C94930074
:1000C0000C9493000C9493000C9493000C94930064
:1000D0000C9493000C9493000C9493000C94930054
:1000E0000C94930011241FBECFEFD1E2DEBFCDBF31
:1000F00000E00CBF12E0A0E0B2E0E2E3F1E100E0DA
:100100000BBF02C007900D92AE3EB107D9F721E2B6
:10011000AEEEB2E001C01D92A836B207E1F70E9430
:100120006E060C9497080C940000823081F128F43C
:10013000882341F08130C1F00895833081F184300B
:1001400089F108956091F4027091F5028091F202B4
:100150009091F3020E942E010E94BD0481E08093E1
:100160005D2180E092E011C06091F4027091F5028F
:100170008091F2029091F3020E942E018130A9F445
:1001800082E080935D2189E092E00C946C050E94EE
:10019000BD0488E192E00E946C0581E004C01092E9
:1001A0005D21089585E080935D210895909101017E
:1001B00090910101982B90930101803161F0813180
:1001C00099F08830D1F470E07093A9006093A80092
:1001D00081E292E007C070E07093AB006093AA00E8
:1001E00087E292E00C946C0570E07093A900609334
:1001F000A8007093AB006093AA000895E0EAF0E0D5
:100200008081836A8083E1EAF0E08081836080837B
:10021000089590917C00907F8F70892B80937C0053
:1002200080917A00806480937A0080917A0086FDC4
:10023000FCCF80917800909179000895ECE7F0E090
:10024000808180648083EAE7F0E080818468808335
:10025000089596958795969587950895AF92BF9244
:10026000CF92DF92EF92FF920F931F93CF93DF9382
:100270005C012FEFA21AB20A6B012FEFC21AD20A49
:1002800025E2A216B10408F01CC225E2C216D10470
:1002900008F017C2C0915C21C13009F018C27B017F
:1002A0008C018DE292E00E946C0580915E218111AB
:1002B0007BC08AE392E00E946C0581E00E94AA0460
:1002C000D82F81E00E94B60496E09C9DF0019D9D90
:1002D000F00D112498ED909F9001919F300D112405
:1002E000E20FF31FE850FD4F948191110CC0D81319
:1002F0000AC0C483C093F60282E08093F70283E4CD
:1003000092E00E946C0582E00E94AA04D82F82E04D
:100310000E94B60497012150310996E0929FF001A6
:10032000939FF00D112498ED909F9001919F300DB7
:100330001124E20FF31FE850FD4F948191110DC07D
:10034000D8130BC081E0848393E09093F6028093EE
:10035000F70287E492E00E946C0580E00E94AA0404
:10036000D82F80E00E94B60496E09E9DF0019F9DEC
:10037000F00D112498ED9A9D90019B9D300D112454
:10038000E20FF31FE850FD4F948191110BC0D81379
:1003900009C081E084831092F6021092F7028BE488
:1003A00092E081C182E085C180915F2181117DC091
:1003B00089E592E00E946C0581E00E94AA04D82F92
:1003C00081E00E94B604A8014150510996E09E9D2B
:1003D000F0019F9DF00D112498ED949F9001959F41
:1003E000300D1124E20FF31FE850FD4F948191115D
:1003F0000CC0D8130AC0C48382E08093F6028093B5
:10040000F70283E492E00E946C0582E00E94AA0455
:10041000D82F82E00E94B60496E09E9DF0019F9D39
:10042000F00D112498ED9A9D90019B9D300D1124A3
:10043000E20FF31FE850FD4F948191110CC0D813C7
:100440000AC081E084831092F6028093F70287E469
:1004500092E00E946C0580E00E94AA04F82E80E0E1
:100460000E94B60496E09C9DF0019D9DF00D112424
:1004700098ED909F9001919F300D1124E20FF31F92
:10048000E850FD4F9481911105C0F81203C081E03E
:10049000848303C183E08093F6028093F70282E5B0
:1004A00092E00E946C05C0E013C18091602181112F
:1004B0007AC089E692E00E946C0581E00E94AA045D
:1004C000B82E81E00E94B60497012150310996E0D0
:1004D000929FF001939FF00D112498ED909F900151
:1004E000919F300D1124E20FF31FE850FD4F9481CE
:1004F00091110DC0B8120BC0C48383E08093F60243
:1005000082E08093F70283E492E00E946C0582E02F
:100510000E94AA04B82E82E00E94B60496E09C9D38
:10052000F0019D9DF00D112498ED909F9001919FF9
:10053000300D1124E20FF31FE850FD4F948191110B
:100540000CC0B8120AC081E084838093F6028093C5
:10055000F70287E492E00E946C0580E00E94AA0402
:10056000D82E80E00E94B6040150110996E09E9DAD
:10057000F0019F9DF00D112498ED909F9001919FA7
:10058000300D1124E20FF31FE850FD4F94819111BB
:1005900006C0D81204C081E0848382E07EC010923D
:1005A000F60283E07ACF80916121811185C082E7D4
:1005B00092E00E946C0581E00E94AA04D82E81E09E
:1005C0000E94B60496E09E9DF0019F9DF00D1124BF
:1005D00098ED9A9D90019B9D300D1124E20FF31F21
:1005E000E850FD4F948191110CC0D8120AC0C48309
:1005F0001092F60282E08093F70283E492E00E9478
:100600006C0582E00E94AA04D82E82E00E94B60403
:10061000A8014150510996E09E9DF0019F9DF00D6B
:10062000112498ED949F9001959F300D1124E20FB5
:10063000F31FE850FD4F948191110DC0D8120BC0EB
:1006400081E0848392E09093F6028093F70287E43E
:1006500092E00E946C0580E00E94AA04D82E80E0FF
:100660000E94B60491E0E91AF10896E09E9DF0011F
:100670009F9DF00D112498ED909F9001919F300D5A
:100680001124E20FF31FE850FD4F9481911110C027
:10069000D8120EC081E0848383E08093F60210922A
:1006A000F70282E692E00E946C0510925C2110C075
:1006B00081E08093F60275CF84E08093F60283E0B8
:1006C00003C084E08093F6028093F702ECCEC1E091
:1006D0008C2FDF91CF911F910F91FF90EF90DF90C2
:1006E000CF90BF90AF90089526E0269FF001279FFE
:1006F000F00D112428EDAC01249FC001259F900D21
:100700001124E80FF91FE850FD4F81E0848308951C
:100710008F929F92AF92BF92CF92DF92EF92FF9211
:100720000F931F93CF93DF93EB018901841B950BEC
:10073000BC0180E090E00E9441076B017C01BE019A
:10074000601B710B80E090E00E9441074B015C014F
:10075000A7019601C701B6010E94CF076B017C017A
:10076000A5019401C501B4010E94CF079B01AC0112
:10077000C701B6010E94A6060E9442080E94120705
:10078000CB01DF91CF911F910F91FF90EF90DF9000
:10079000CF90BF90AF909F908F9008952F923F92EF
:1007A0004F925F926F927F928F929F92AF92BF9281
:1007B000CF92DF92EF92FF920F931F93CF93DF932D
:1007C0005C014B012090EE023090EF024090F0026D
:1007D0005090F10288EFC82E82E0D82E94E2692E64
:1007E000712C00E010E07601C0E0D0E0F7018481D8
:1007F000813079F4858181110CC09E01A801B4017A
:10080000C5010E9488038615970518F42E0118016A
:100810003C012196F6E0EF0EF11CC432D10531F710
:100820000F5F1F4F88EDC80ED11C04321105D9F699
:100830002092EE023092EF024092F0025092F102CA
:100840008EEE92E0DF91CF911F910F91FF90EF908C
:10085000DF90CF90BF90AF909F908F907F906F90E0
:100860005F904F903F902F90089588EF92E0FC01A9
:1008700020E030E0108211821282138214821582ED
:100880002F5F3F4F369624323105A1F788529F4F94
:1008900021E28835920759F708952FEF83ED90E311
:1008A000215080409040E1F700C000008BE792E0CB
:1008B0000E946C0581E080935C2108958AE892E0B3
:1008C0000E946C0580B180B9029A68EC88E00E94B1
:1008D000D60060E080E10E94D6000C944D0488E9C7
:1008E00092E00E946C0580B180B9009A68EC80E1CA
:1008F0000E94D60060E088E00E94D6000C944D046F
:1009000086EA92E00E946C0580B180B980B1856072
:1009100080B968EC88E00E94D60068EC80E10E9413
:10092000D6000C944D0481EB92E00E946C0580B1DE
:1009300080B980B18A6080B968EC88E00E94D600F6
:1009400068EC80E10E94D6000C944D0480B180B127
:1009500080B9089546B121E030E0B90102C0660FC8
:10096000771F8A95E2F7CB018423089591E001C0B7
:10097000990F8A95EAF7892F089580915C2181115A
:100980007BC08DEB92E00E946C058091F602811194
:100990000FC010925E2181E080935F2180936021DF
:1009A000809361218091F2029091F302019620C020
:1009B000813071F480935E2110925F2180936021D9
:1009C000809361218091F4029091F502019625C0F7
:1009D000823099F481E080935E2180935F211092B0
:1009E0006021809361218091F2029091F30201973E
:1009F0009093F3028093F2021EC0833099F481E059
:100A000080935E2180935F21809360211092612109
:100A10008091F4029091F50201979093F5028093F2
:100A2000F40209C081E080935E2180935F2180936E
:100A30006021809361218091F702811102C00E94A0
:100A400080048091F702823011F40E946F0480913B
:100A5000F702813011F40E945E048091F702833026
:100A600011F40E9493048091F702843011F40E94E3
:100A7000A60484E08093F70281E0089581B111B863
:100A800081B18F6081B9089587B187B187B988B185
:100A90008F6088B908953E9A08951092C50087E640
:100AA0008093C400E0ECF0E080818D7F808388E15A
:100AB0008093C10086E08093C20008959091C000A9
:100AC00095FFFCCF8093C60008958091C00087FFFA
:100AD000FCCF8091C60008950F931F93CF938C0194
:100AE000C0E0F801EC0FF11D8081882321F00E9405
:100AF0005E05CF5FF6CFCF911F910F910895CF92F2
:100B0000DF92EF92FF920F931F93CF93DF936C01CD
:100B1000F12C062F10E001501109CF2DD0E0C017A5
:100B2000D10744F40E946505E82E0E945E058DE021
:100B3000E8120CC0CC0DDD1D1882DF91CF911F9102
:100B40000F91FF90EF90DF90CF900895CC0DDD1DB9
:100B5000E882F394E2CFCF93C82F64E60E94850623
:100B6000805D0E945E052AE08C2F622F0E94850620
:100B7000C92F0E94850680E3890F0E945E0580E3ED
:100B80008C0FCF910C945E050F931F93CF93DF933F
:100B90008C0160E177E20E94910680E3860F0E945B
:100BA0005E05C80168EE73E00E949106CB01CAE0C1
:100BB000D0E0BE010E949106805D0E945E05C801E2
:100BC00064E670E00E949106CB01BE010E9491068E
:100BD000805D0E945E05C801BE010E949106182F2B
:100BE000CB01BE010E949106805D0E945E0580E3FC
:100BF000810FDF91CF911F910F910C945E051F9390
:100C0000CF93DF931F92CDB7DEB7898317E0898139
:100C100090E0012E02C0959587950A94E2F780FF37
:100C200002C081E301C080E30E945E05115078F7A5
:100C30000F90DF91CF911F9108958A3010F4805D5D
:100C40000895895C0895CF93C82F82958F700E9474
:100C50001D060E945E058C2F8F700E941D06CF918D
:100C60000C945E050F931F93CF93DF93D0E3C0E303
:100C700010E30E946505082F0E945E050D3021F0EB
:100C80001C2FCD2FD02FF5CF1053D05384E6189FB3
:100C9000D00D1124CC0FC0568C2F880F880F8C0FCD
:100CA0008D0FDF91CF911F910F91089510925D21CB
:100CB000E2EFF2E082E190E091838083938382838C
:100CC000E6EFF2E010821182EEE5F1E281E080834E
:100CD00011828283838380935C2108950E9456064B
:100CE0000E9435040E943E050E9444050E94FE00B9
:100CF0000E941E010E944D0588EC92E00E946C0546
:100D000080915D210E949500FBCF991B79E004C082
:100D1000991F961708F0961B881F7A95C9F780953A
:100D20000895AA1BBB1B51E107C0AA1FBB1FA61732
:100D3000B70710F0A61BB70B881F991F5A95A9F784
:100D400080959095BC01CD0108955058BB27AA27E6
:100D50000E94BD060C9495070E94870738F00E94F8
:100D60008E0720F039F49F3F19F426F40C94840781
:100D70000EF4E095E7FB0C947E07E92F0E94A6078E
:100D800058F3BA17620773078407950720F079F4C0
:100D9000A6F50C94C8070EF4E0950B2EBA2FA02DE3
:100DA0000B01B90190010C01CA01A0011124FF2718
:100DB000591B99F0593F50F4503E68F11A16F04013
:100DC000A22F232F342F4427585FF3CF4695379512
:100DD0002795A795F0405395C9F77EF41F16BA0BD7
:100DE000620B730B840BBAF09150A1F0FF0FBB1F85
:100DF000661F771F881FC2F70EC0BA0F621F731FCE
:100E0000841F48F4879577956795B795F7959E3F2A
:100E100008F0B0CF9395880F08F09927EE0F9795BB
:100E2000879508950E94AE0788F09F5798F0B92FD4
:100E30009927B751B0F0E1F0660F771F881F991F0F
:100E40001AF0BA95C9F714C0B13091F00E94C807E2
:100E5000B1E008950C94C807672F782F8827B85FF2
:100E600039F0B93FCCF3869577956795B395D9F767
:100E70003EF490958095709561957F4F8F4F9F4F71
:100E80000895E89409C097FB3EF49095809570957D
:100E900061957F4F8F4F9F4F9923A9F0F92F96E9C6
:100EA000BB279395F695879577956795B795F1113B
:100EB000F8CFFAF4BB0F11F460FF1BC06F5F7F4FD8
:100EC0008F4F9F4F16C0882311F096E911C07723EA
:100ED00021F09EE8872F762F05C0662371F096E8F3
:100EE000862F70E060E02AF09A95660F771F881FC2
:100EF000DAF7880F9695879597F9089597F99F6780
:100F000080E870E060E008959FEF80EC0895002491
:100F10000A941616170618060906089500240A945E
:100F200012161306140605060895092E0394000CE4
:100F300011F4882352F0BB0F40F4BF2B11F460FF73
:100F400004C06F5F7F4F8F4F9F4F089557FD90589C
:100F5000440F551F59F05F3F71F04795880F97FB7D
:100F6000991F61F09F3F79F0879508951216130637
:100F70001406551FF2CF4695F1DF08C01616170666
:100F80001806991FF1CF869571056105089408959B
:100F9000E894BB2766277727CB0197F908950E942D
:100FA000E2070C9495070E94870738F00E948E078D
:100FB00020F0952311F00C947E070C9484071124E3
:100FC0000C94C9070E94A60770F3959FC1F3950F73
:100FD00050E0551F629FF001729FBB27F00DB11DBD
:100FE000639FAA27F00DB11DAA1F649F6627B00D4D
:100FF000A11D661F829F2227B00DA11D621F739F36
:10100000B00DA11D621F839FA00D611D221F749F43
:101010003327A00D611D231F849F600D211D822F8A
:10102000762F6A2F11249F5750409AF0F1F08823B1
:101030004AF0EE0FFF1FBB1F661F771F881F9150DE
:101040005040A9F79E3F510580F00C947E070C9408
:10105000C9075F3FE4F3983ED4F38695779567958B
:10106000B795F795E7959F5FC1F7FE2B880F911D08
:101070009695879597F9089519F416F40C948407BA
:101080000C9482080E94AE07B8F39923C9F3B6F313
:101090009F57550B87FF0E9490080024A0E640EA66
:1010A000900180585695979528F4805C660F771FBD
:1010B000881F20F026173707480730F4621B730B90
:1010C000840B202931294A2BA695179407942025B3
:1010D00031254A2758F7660F771F881F20F02617FB
:1010E0003707480730F4620B730B840B200D311D5A
:1010F000411DA09581F7B901842F9158880F9695CD
:10110000879508959F3F31F0915020F4879577950A
:101110006795B795880F911D9695879597F90895CE
:1011200091505040660F771F881FD2F70895F894AA
:02113000FFCFEF
:10113200696E6974200D200A004C6F6F6B61726FCB
:10114200756E64200D200A0053746570200D200A0C
:10115200003441200D0A003442200D0A0043686524
:10116200636B4F4253200D200A0048656164207072
:10117200782000204C2000205220002046200D2004
:101182000A002042200D200A00486561642070791F
:1011920020002046200D0A200048656164206D78F9
:1011A200200048656164206D79200053746F70736C
:1011B200204D6F746F72200D0A005475726E2052AA
:1011C20069676874200D0A005475726E204C65665A
:1011D20074200D200A00466F7277617264200D0A36
:1011E200004261636B77617264200D0A0057686583
:1011F2007265596F75476F004927616D20546865A4
:1012020020427261766520416476656E74757265FE
:0E12120020562E30312E3030200D200A0000E4
:00000001FF
